{
  "contractName": "Authentication",
  "abi": [
    {
      "constant": false,
      "inputs": [
        {
          "internalType": "address payable",
          "name": "_newOwner",
          "type": "address"
        }
      ],
      "name": "setOwner",
      "outputs": [
        {
          "internalType": "bool",
          "name": "_success",
          "type": "bool"
        }
      ],
      "payable": true,
      "stateMutability": "payable",
      "type": "function"
    },
    {
      "constant": true,
      "inputs": [],
      "name": "getOwner",
      "outputs": [
        {
          "internalType": "address payable",
          "name": "_currentOwner",
          "type": "address"
        }
      ],
      "payable": false,
      "stateMutability": "view",
      "type": "function"
    }
  ],
  "bytecode": "0x608060405234801561001057600080fd5b5061018a806100206000396000f3fe6080604052600436106100295760003560e01c806313af40351461002e578063893d20e81461008a575b600080fd5b6100706004803603602081101561004457600080fd5b81019080803573ffffffffffffffffffffffffffffffffffffffff1690602001909291905050506100e1565b604051808215151515815260200191505060405180910390f35b34801561009657600080fd5b5061009f61012c565b604051808273ffffffffffffffffffffffffffffffffffffffff1673ffffffffffffffffffffffffffffffffffffffff16815260200191505060405180910390f35b6000816000806101000a81548173ffffffffffffffffffffffffffffffffffffffff021916908373ffffffffffffffffffffffffffffffffffffffff16021790555060019050919050565b60008060009054906101000a900473ffffffffffffffffffffffffffffffffffffffff1690509056fea265627a7a723158207afca4d74acccc5825d14485adcc4ab3496cc162e27ffe5ea419cc0e9e48acae64736f6c63430005100032",
  "source": "pragma solidity ^0.5.0;\n\ncontract Authentication {\n\n    address payable ownerAddress;\n\n    modifier _isOwner() {\n        if (msg.sender == ownerAddress) {\n            _;\n        }\n    }\n\n    function setOwner(address payable _newOwner) public payable returns (bool _success) {\n        ownerAddress = _newOwner;\n        return true;\n    }\n\n    function getOwner() public view returns (address payable _currentOwner) {\n        return ownerAddress;\n    }\n\n}\n",
  "sourcePath": "D:\\Work\\Thesis_ThinhHuynh_2019\\Real-Estate-API\\contracts\\Authentication.sol",
  "compiler": {
    "name": "solc",
    "version": "0.5.16+commit.9c3226ce.Emscripten.clang"
  },
  "schemaVersion": "3.0.23",
  "updatedAt": "2020-02-10T08:02:59.607Z",
  "devdoc": {
    "methods": {}
  },
  "userdoc": {
    "methods": {}
  }
}