{
  "contractName": "HouseAdmin",
  "abi": [
    {
      "inputs": [],
      "payable": false,
      "stateMutability": "nonpayable",
      "type": "constructor"
    },
    {
      "anonymous": false,
      "inputs": [
        {
          "indexed": false,
          "internalType": "string",
          "name": "text",
          "type": "string"
        }
      ],
      "name": "Log",
      "type": "event"
    },
    {
      "anonymous": false,
      "inputs": [
        {
          "indexed": false,
          "internalType": "string",
          "name": "text",
          "type": "string"
        }
      ],
      "name": "Logger",
      "type": "event"
    },
    {
      "payable": true,
      "stateMutability": "payable",
      "type": "fallback"
    },
    {
      "constant": true,
      "inputs": [],
      "name": "getOwner",
      "outputs": [
        {
          "internalType": "address payable",
          "name": "_currentOwner",
          "type": "address"
        }
      ],
      "payable": false,
      "stateMutability": "view",
      "type": "function"
    },
    {
      "constant": true,
      "inputs": [
        {
          "internalType": "uint256",
          "name": "",
          "type": "uint256"
        }
      ],
      "name": "houses",
      "outputs": [
        {
          "internalType": "contract House",
          "name": "",
          "type": "address"
        }
      ],
      "payable": false,
      "stateMutability": "view",
      "type": "function"
    },
    {
      "constant": false,
      "inputs": [
        {
          "internalType": "address payable",
          "name": "_to",
          "type": "address"
        },
        {
          "internalType": "uint256",
          "name": "_amount",
          "type": "uint256"
        }
      ],
      "name": "safeTransferTo",
      "outputs": [],
      "payable": true,
      "stateMutability": "payable",
      "type": "function"
    },
    {
      "constant": false,
      "inputs": [
        {
          "internalType": "address payable",
          "name": "_newOwner",
          "type": "address"
        }
      ],
      "name": "setOwner",
      "outputs": [
        {
          "internalType": "bool",
          "name": "_success",
          "type": "bool"
        }
      ],
      "payable": true,
      "stateMutability": "payable",
      "type": "function"
    },
    {
      "constant": false,
      "inputs": [
        {
          "internalType": "string",
          "name": "_location",
          "type": "string"
        },
        {
          "internalType": "uint256",
          "name": "_price",
          "type": "uint256"
        },
        {
          "internalType": "uint256",
          "name": "_area",
          "type": "uint256"
        }
      ],
      "name": "sellHouse",
      "outputs": [
        {
          "internalType": "contract House",
          "name": "_houseAddress",
          "type": "address"
        }
      ],
      "payable": false,
      "stateMutability": "nonpayable",
      "type": "function"
    },
    {
      "constant": true,
      "inputs": [],
      "name": "getAllHouses",
      "outputs": [
        {
          "internalType": "contract House[]",
          "name": "",
          "type": "address[]"
        }
      ],
      "payable": false,
      "stateMutability": "view",
      "type": "function"
    }
  ],
  "bytecode": "0x608060405234801561001057600080fd5b5060008054600160a060020a031916331790556120ff806100326000396000f3fe608060405260043610610071577c0100000000000000000000000000000000000000000000000000000000600035046313af40358114610073578063893d20e8146100ad5780639ce3bf75146100de578063aeda852f14610196578063d87deea8146101c0578063fa752a4714610225575b005b6100996004803603602081101561008957600080fd5b5035600160a060020a0316610251565b604080519115158252519081900360200190f35b3480156100b957600080fd5b506100c2610306565b60408051600160a060020a039092168252519081900360200190f35b3480156100ea57600080fd5b506100c26004803603606081101561010157600080fd5b81019060208101813564010000000081111561011c57600080fd5b82018360208201111561012e57600080fd5b8035906020019184600183028401116401000000008311171561015057600080fd5b91908080601f0160208091040260200160405190810160405280939291908181526020018383808284376000920191909152509295505082359350505060200135610315565b3480156101a257600080fd5b506100c2600480360360208110156101b957600080fd5b5035610439565b3480156101cc57600080fd5b506101d5610460565b60408051602080825283518183015283519192839290830191858101910280838360005b838110156102115781810151838201526020016101f9565b505050509050019250505060405180910390f35b6100716004803603604081101561023b57600080fd5b50600160a060020a0381351690602001356104c2565b60008054600190600160a060020a0316331415610299576000805473ffffffffffffffffffffffffffffffffffffffff1916600160a060020a03851617905560019150610300565b604080517f08c379a000000000000000000000000000000000000000000000000000000000815260206004820152601360248201527f594f5520415245204e4f54204f574e4552202100000000000000000000000000604482015290519081900360640190fd5b50919050565b600054600160a060020a031690565b600080338585670de0b6b3a764000002856040516103329061052d565b600160a060020a0385168152604081018390526060810182905260806020808301828152865192840192909252855160a084019187019080838360005b8381101561038757818101518382015260200161036f565b50505050905090810190601f1680156103b45780820380516001836020036101000a031916815260200191505b5095505050505050604051809103906000f0801580156103d8573d6000803e3d6000fd5b506001805480820182556000919091527fb10e2d527612073b26eecdfd717e6a320cf44b4afac2b0732d9fcbe2b7fa0cf601805473ffffffffffffffffffffffffffffffffffffffff1916600160a060020a03831617905595945050505050565b6001818154811061044657fe5b600091825260209091200154600160a060020a0316905081565b606060018054806020026020016040519081016040528092919081815260200182805480156104b857602002820191906000526020600020905b8154600160a060020a0316815260019091019060200180831161049a575b5050505050905090565b604051600160a060020a0383169082156108fc029083906000818181858888f193505050501580156104f8573d6000803e3d6000fd5b5060405133903483900380156108fc02916000818181858888f19350505050158015610528573d6000803e3d6000fd5b505050565b611b908061053b8339019056fe608060405260405162001b9038038062001b90833981810160405260808110156200002957600080fd5b8151602083018051604051929492938301929190846401000000008211156200005157600080fd5b9083019060208201858111156200006757600080fd5b82516401000000008111828201881017156200008257600080fd5b82525081516020918201929091019080838360005b83811015620000b157818101518382015260200162000097565b50505050905090810190601f168015620000df5780820380516001836020036101000a031916815260200191505b506040908152602082810151929091015160008054600160a060020a031916600160a060020a038916179055855192945092506200012391600191860190620001be565b5060025560038054600160ff199182168117909255600a92909255600b8054909216179055505060098054750100000000000000000000000000000000000000000060a060020a61ffff02199182168117909255426004819055670de0b6b3a7640000600681905562278d006007819055624f1a0060085560118054909416909417909255600c55600e55600f556276a70060105562000263565b828054600181600116156101000203166002900490600052602060002090601f016020900481019282601f106200020157805160ff191683800117855562000231565b8280016001018555821562000231579182015b828111156200023157825182559160200191906001019062000214565b506200023f92915062000243565b5090565b6200026091905b808211156200023f57600081556001016200024a565b90565b61191d80620002736000396000f3fe608060405260043610610147576000357c010000000000000000000000000000000000000000000000000000000090048063893d20e8116100c8578063ac9f02221161008c578063ac9f022214610430578063b29b53661461045c578063f4ed9c7814610488578063f7497ec314610534578063fa752a471461053c578063fe73030c1461056857610147565b8063893d20e81461035b5780638c33a6401461038c5780638e911059146103b857806390e1b444146103f6578063a6f2ae3a1461042857610147565b8063622097151161010f57806362209715146102ca57806369a3c7e5146102f85780636d28ad57146103005780636eb956de1461031557806382996d9f1461035357610147565b80630f9a5e081461014957806313af4035146102035780632dcfdd041461023d5780634b9a1385146102525780635ff3fb7d146102b5575b005b34801561015557600080fd5b506101476004803603606081101561016c57600080fd5b81019060208101813564010000000081111561018757600080fd5b82018360208201111561019957600080fd5b803590602001918460018302840111640100000000831117156101bb57600080fd5b91908080601f01602080910402602001604051908101604052809392919081815260200183838082843760009201919091525092955050823593505050602001351515610570565b6102296004803603602081101561021957600080fd5b5035600160a060020a031661065d565b604080519115158252519081900360200190f35b34801561024957600080fd5b506101476106a6565b34801561025e57600080fd5b5061026761076e565b6040805198895260208901979097528787019590955260608701939093526080860191909152600160a060020a031660a0850152151560c0840152151560e083015251908190036101000190f35b3480156102c157600080fd5b506101476107a9565b3480156102d657600080fd5b506102df610888565b6040805192835290151560208301528051918290030190f35b610147610895565b34801561030c57600080fd5b50610267610a1e565b34801561032157600080fd5b506101476004803603608081101561033857600080fd5b50803590602081013590604081013590606001351515610a59565b610147610c42565b34801561036757600080fd5b50610370610dce565b60408051600160a060020a039092168252519081900360200190f35b34801561039857600080fd5b50610147600480360360208110156103af57600080fd5b50351515610dde565b3480156103c457600080fd5b50610147600480360360808110156103db57600080fd5b50803590602081013590604081013590606001351515610e22565b34801561040257600080fd5b506101476004803603604081101561041957600080fd5b5080359060200135151561100d565b61014761103c565b34801561043c57600080fd5b506101476004803603602081101561045357600080fd5b50351515611126565b34801561046857600080fd5b506101476004803603602081101561047f57600080fd5b5035151561114f565b34801561049457600080fd5b5061049d611193565b60408051600160a060020a0386168152908101839052811515606082015260806020808301828152865192840192909252855160a084019187019080838360005b838110156104f65781810151838201526020016104de565b50505050905090810190601f1680156105235780820380516001836020036101000a031916815260200191505b509550505050505060405180910390f35b610147611253565b6101476004803603604081101561055257600080fd5b50600160a060020a0381351690602001356113df565b610147611445565b600054600190600160a060020a03163314156105b25783516105999060019060208701906115bf565b5060028390556003805460ff1916831515179055610602565b6040805160e560020a62461bcd02815260206004820152601360248201527f594f5520415245204e4f54204f574e4552202100000000000000000000000000604482015290519081900360640190fd5b610657565b6040805160e560020a62461bcd02815260206004820152601760248201527f594f5520415245204f574e455220414c52454144592021000000000000000000604482015290519081900360640190fd5b50505050565b60008054600190600160a060020a03163314156105b2576000805473ffffffffffffffffffffffffffffffffffffffff1916600160a060020a0385161790556001915050919050565b600054600190600160a060020a03163314156105b2576005544210156107005760405160e560020a62461bcd02815260040180806020018281038252602a8152602001806117fc602a913960400191505060405180910390fd5b60095460a060020a900460ff1661074b5760405160e560020a62461bcd02815260040180806020018281038252602381526020018061184b6023913960400191505060405180910390fd5b6009805475ffffffffffffffffffffffffffffffffffffffffffff191690555b50565b600c54600d54600e54600f54601054601154600160a060020a0381169060ff60a060020a820481169160a860020a9004169091929394959697565b600054600190600160a060020a03163314156105b257600d544210156108035760405160e560020a62461bcd02815260040180806020018281038252602a8152602001806117fc602a913960400191505060405180910390fd5b60115460a060020a900460ff1661084e5760405160e560020a62461bcd02815260040180806020018281038252602d8152602001806116e1602d913960400191505060405180910390fd5b6011805475ffffffffffffffffffffffffffffffffffffffffffff19169055600b805460ff1916600117905542600c819055600d5561076b565b600a54600b5460ff169091565b60006108f2565b6040805160e560020a62461bcd02815260206004820152601e60248201527f5452414e53414354494f4e204e4f5420454e4f55474820455448455220210000604482015290519081900360640190fd5b5061076b565b600054600160a060020a031633146106075760065480341061089c5760095460a060020a900460ff1680156109315750600954600160a060020a031633145b61096f5760405160e560020a62461bcd02815260040180806020018281038252602881526020018061189a6028913960400191505060405180910390fd5b600454600554106109b45760405160e560020a62461bcd0281526004018080602001828103825260228152602001806116906022913960400191505060405180910390fd5b6000546006546109cd91600160a060020a0316906113df565b60075460058054909101905560095460408051600160a060020a039092168252517fcb07f57e2806563e485fc164eeceb48bd150ea1a389a41acd39d27d95752e0979181900360200190a15061076b565b600454600554600654600754600854600954600160a060020a0381169060ff60a060020a820481169160a860020a9004169091929394959697565b600054600190600160a060020a03163314156105b2576000610b3e565b84841015610ab85760405160e560020a62461bcd0281526004018080602001828103825260388152602001806116586038913960400191505060405180910390fd5b848481610ac157fe5b0615610b015760405160e560020a62461bcd02815260040180806020018281038252602c81526020018061186e602c913960400191505060405180910390fd5b6006869055600785905560088490556009805475ff000000000000000000000000000000000000000000191660a860020a85151502179055610c3a565b60095460a060020a900460ff16158015610b615750600954600160a060020a0316155b15610bea5760008611610ba85760405160e560020a62461bcd0281526004018080602001828103825260268152602001806117316026913960400191505060405180910390fd5b60008511610a765760405160e560020a62461bcd0281526004018080602001828103825260248152602001806117b36024913960400191505060405180910390fd5b6040805160e560020a62461bcd02815260206004820152601f60248201527f54484520484f5553452049532043555252454e544c592052454e544544202100604482015290519081900360640190fd5b505050505050565b60095460a860020a900460ff168015610c65575060095460a060020a900460ff16155b15610d7c5760008054600160a060020a031633146106075760065480341061089c57600454421015610ccb5760405160e560020a62461bcd0281526004018080602001828103825260258152602001806117d76025913960400191505060405180910390fd5b600054600654610ce491600160a060020a0316906113df565b60085442908101600455600754016005556009805474ff00000000000000000000000000000000000000001973ffffffffffffffffffffffffffffffffffffffff1990911633171660a060020a179081905560408051600160a060020a03929092168252517fd98e212306bf7d503620a9302294200aa29d41204aab082f71092c88a27e5cb99181900360200190a15b505b50610dcc565b6040805160e560020a62461bcd02815260206004820152601c60248201527f594f552043414e4e4f542052454e54205448495320484f555345202100000000604482015290519081900360640190fd5b565b600054600160a060020a03165b90565b600054600190600160a060020a03163314156105b2576011805475ff000000000000000000000000000000000000000000191660a860020a841515021790555b5050565b600054600190600160a060020a03163314156105b257600060115460a060020a900460ff16158015610e5d5750601154600160a060020a0316155b15610fd35760008611610ea45760405160e560020a62461bcd0281526004018080602001828103825260258152602001806118266025913960400191505060405180910390fd5b60008511610ee65760405160e560020a62461bcd0281526004018080602001828103825260248152602001806117b36024913960400191505060405180910390fd5b84841015610f285760405160e560020a62461bcd0281526004018080602001828103825260388152602001806116586038913960400191505060405180910390fd5b848481610f3157fe5b0615610f715760405160e560020a62461bcd02815260040180806020018281038252602c81526020018061186e602c913960400191505060405180910390fd5b6000606487600201600a540281610f8457fe5b04600a540190508486820281610f9657fe5b04600e5550600f85905560108490556011805475ff000000000000000000000000000000000000000000191660a860020a85151502179055610c3a565b60405160e560020a62461bcd02815260040180806020018281038252602381526020018061170e6023913960400191505060405180910390fd5b600054600190600160a060020a03163314156105b257600a839055600b805460ff19168315151790555b505050565b600b5460ff16156110d65760008054600160a060020a0316331461060757600054600a5461107391600160a060020a0316906113df565b6000805473ffffffffffffffffffffffffffffffffffffffff191633179081905560408051600160a060020a03929092168252517f0e240929895e4b92a221f9afc5a368e8c21bbb8d724511edd6e92445cfa9882e9181900360200190a1610d76565b6040805160e560020a62461bcd02815260206004820152601b60248201527f594f552043414e4e4f5420425559205448495320484f55534520210000000000604482015290519081900360640190fd5b600054600190600160a060020a03163314156105b2576003805460ff1916831515179055610e1e565b600054600190600160a060020a03163314156105b2576009805475ff000000000000000000000000000000000000000000191660a860020a84151502179055610e1e565b600080546002805460035460018054604080516020601f6000198587161561010002019094169790970492830187900487028101870190915281815260609688968796600160a060020a0390921695919360ff9092169291859183018282801561123e5780601f106112135761010080835404028352916020019161123e565b820191906000526020600020905b81548152906001019060200180831161122157829003601f168201915b50505050509250935093509350935090919293565b600061131d565b600054600e5461127391600160a060020a0316906113df565b600f54600d805490910190819055600c541161131857601180546000805473ffffffffffffffffffffffffffffffffffffffff1916600160a060020a03808416919091179182905575ffffffffffffffffffffffffffffffffffffffffffff1990921690925542600c819055600d5560408051929091168252517f0e240929895e4b92a221f9afc5a368e8c21bbb8d724511edd6e92445cfa9882e9181900360200190a15b6108ec565b600054600160a060020a0316331461060757600e5480341061089c5760115460a060020a900460ff16801561135c5750601154600160a060020a031633145b61139a5760405160e560020a62461bcd02815260040180806020018281038252602e815260200180611757602e913960400191505060405180910390fd5b600c54600d541061125a5760405160e560020a62461bcd0281526004018080602001828103825260278152602001806118c26027913960400191505060405180910390fd5b604051600160a060020a0383169082156108fc029083906000818181858888f19350505050158015611415573d6000803e3d6000fd5b5060405133903483900380156108fc02916000818181858888f19350505050158015611037573d6000803e3d6000fd5b60115460a860020a900460ff168015611468575060115460a060020a900460ff16155b156115855760008054600160a060020a0316331461060757600e5480341061089c57600c544210156114ce5760405160e560020a62461bcd02815260040180806020018281038252602f8152602001806116b2602f913960400191505060405180910390fd5b600054600e546114e791600160a060020a0316906113df565b60105442908101600c55600f5401600d556011805474ff00000000000000000000000000000000000000001973ffffffffffffffffffffffffffffffffffffffff1990911633171660a060020a1790819055600b805460ff1916905560408051600160a060020a03929092168252517f7b580e289b0cd36ff5d70b1233d6b66036f903a7c7a881a4d1d33cd515e345059181900360200190a1610d74565b60405160e560020a62461bcd02815260040180806020018281038252602e815260200180611785602e913960400191505060405180910390fd5b828054600181600116156101000203166002900490600052602060002090601f016020900481019282601f1061160057805160ff191683800117855561162d565b8280016001018555821561162d579182015b8281111561162d578251825591602001919060010190611612565b5061163992915061163d565b5090565b610ddb91905b80821115611639576000815560010161164356fe4455524154494f4e204d5553542042452047524541544552205448414e204f5220455155414c20544f205041594d454e542053544550202152454e54414c20434f4e5452414354205041594d454e54204f56455254494d45202154484520484f5553452049532043555252454e544c5920494e20494e5354414c4c4d454e542050524f43455353202154484520484f55534520484153204e4f54204245454e20494e5354414c4c4d454e54205041494420594554202154484520484f5553452049532043555252454e544c5920494e2050524f4345535320215041594d454e5420434841524745204d555354204245204c4152474552205448414e20302021594f5520415245204e4f54204255594552204f5220484f555345204953204e4f5420494e2050524f434553532021594f552043414e4e4f542050415920425920494e5354414c4c4d454e5420464f52205448495320484f55534520215041594d454e542053544550204d555354204245204c4152474552205448414e2030202154484520484f5553452049532043555252454e544c59204245494e472052454e5445442021495420484153204e4f54204245454e205945542052454143484544205041594d454e5420444154452021494e5445524553542052415445204d555354204245204c4152474552205448414e2030202154484520484f55534520484153204e4f54204245454e2052454e5445442059455420214455524154494f4e204d55535420424520444956495349424c45204259205041594d454e5420535445502021594f5520415245204e4f542052454e544552204f5220484f555345204e4f542052454e5445442021494e5354414c4c4d454e5420434f4e5452414354205041594d454e54204f56455254494d452021a265627a7a7231582068807c42c4c70e8bd67ad081f391228a32670939717dd02a09efed016456f29b64736f6c63430005100032a265627a7a72315820c80bb72f6101e2707de26f327a9e2ad7085b48b01e0bbb9431a7841e635f159664736f6c63430005100032",
  "source": "pragma solidity ^0.5.0;\n\nimport \"./Authentication.sol\";\nimport \"./House.sol\";\n\ncontract HouseAdmin is Authentication {\n\n    House[] public houses;\n\n    constructor() public {\n        owner = msg.sender;\n    }\n\n    event Log(string text);\n\n    function sellHouse(string memory _location, uint256 _price, uint256 _area) public returns (House _houseAddress) {\n        // Create new house instance as passing arguments to its constructor !\n        House house = new House(msg.sender, _location, _price * 1 ether, _area);\n        houses.push(house);\n        return house;\n    }\n\n    function getAllHouses() public view returns (House[] memory) {\n        return houses;\n    }\n\n    /* Fallback methods ! */\n    function() external payable {\n        /* Fallback function ! */\n    }\n\n}\n",
  "sourcePath": "D:\\Work\\Thesis_ThinhHuynh_2019\\Real-Estate-API\\contracts\\HouseAdmin.sol",
  "compiler": {
    "name": "solc",
    "version": "0.5.16+commit.9c3226ce.Emscripten.clang"
  },
  "schemaVersion": "3.0.23",
  "updatedAt": "2020-02-18T08:59:55.769Z",
  "networkType": "ethereum",
  "devdoc": {
    "methods": {}
  },
  "userdoc": {
    "methods": {}
  }
}