{
  "contractName": "HouseAdmin",
  "abi": [
    {
      "inputs": [],
      "payable": false,
      "stateMutability": "nonpayable",
      "type": "constructor"
    },
    {
      "anonymous": false,
      "inputs": [
        {
          "indexed": false,
          "internalType": "string",
          "name": "text",
          "type": "string"
        }
      ],
      "name": "Log",
      "type": "event"
    },
    {
      "payable": true,
      "stateMutability": "payable",
      "type": "fallback"
    },
    {
      "constant": true,
      "inputs": [],
      "name": "getOwner",
      "outputs": [
        {
          "internalType": "address payable",
          "name": "_currentOwner",
          "type": "address"
        }
      ],
      "payable": false,
      "stateMutability": "view",
      "type": "function"
    },
    {
      "constant": true,
      "inputs": [
        {
          "internalType": "uint256",
          "name": "",
          "type": "uint256"
        }
      ],
      "name": "houses",
      "outputs": [
        {
          "internalType": "contract House",
          "name": "",
          "type": "address"
        }
      ],
      "payable": false,
      "stateMutability": "view",
      "type": "function"
    },
    {
      "constant": false,
      "inputs": [
        {
          "internalType": "address payable",
          "name": "_newOwner",
          "type": "address"
        }
      ],
      "name": "setOwner",
      "outputs": [
        {
          "internalType": "bool",
          "name": "_success",
          "type": "bool"
        }
      ],
      "payable": true,
      "stateMutability": "payable",
      "type": "function"
    },
    {
      "constant": false,
      "inputs": [
        {
          "internalType": "string",
          "name": "_location",
          "type": "string"
        },
        {
          "internalType": "uint256",
          "name": "_price",
          "type": "uint256"
        },
        {
          "internalType": "uint256",
          "name": "_area",
          "type": "uint256"
        }
      ],
      "name": "sellHouse",
      "outputs": [
        {
          "internalType": "contract House",
          "name": "_houseAddress",
          "type": "address"
        }
      ],
      "payable": false,
      "stateMutability": "nonpayable",
      "type": "function"
    },
    {
      "constant": true,
      "inputs": [],
      "name": "getAllHouses",
      "outputs": [
        {
          "internalType": "contract House[]",
          "name": "",
          "type": "address[]"
        }
      ],
      "payable": false,
      "stateMutability": "view",
      "type": "function"
    }
  ],
  "bytecode": "0x608060405234801561001057600080fd5b5060008054600160a060020a031916331790556122da806100326000396000f3fe608060405260043610610066577c0100000000000000000000000000000000000000000000000000000000600035046313af40358114610068578063893d20e8146100a25780639ce3bf75146100d3578063aeda852f1461018b578063d87deea8146101b5575b005b61008e6004803603602081101561007e57600080fd5b5035600160a060020a031661021a565b604080519115158252519081900360200190f35b3480156100ae57600080fd5b506100b76102cf565b60408051600160a060020a039092168252519081900360200190f35b3480156100df57600080fd5b506100b7600480360360608110156100f657600080fd5b81019060208101813564010000000081111561011157600080fd5b82018360208201111561012357600080fd5b8035906020019184600183028401116401000000008311171561014557600080fd5b91908080601f01602080910402602001604051908101604052809392919081815260200183838082843760009201919091525092955050823593505050602001356102de565b34801561019757600080fd5b506100b7600480360360208110156101ae57600080fd5b5035610402565b3480156101c157600080fd5b506101ca610429565b60408051602080825283518183015283519192839290830191858101910280838360005b838110156102065781810151838201526020016101ee565b505050509050019250505060405180910390f35b60008054600190600160a060020a0316331415610262576000805473ffffffffffffffffffffffffffffffffffffffff1916600160a060020a038516179055600191506102c9565b604080517f08c379a000000000000000000000000000000000000000000000000000000000815260206004820152601360248201527f594f5520415245204e4f54204f574e4552202100000000000000000000000000604482015290519081900360640190fd5b50919050565b600054600160a060020a031690565b600080338585670de0b6b3a764000002856040516102fb9061048b565b600160a060020a0385168152604081018390526060810182905260806020808301828152865192840192909252855160a084019187019080838360005b83811015610350578181015183820152602001610338565b50505050905090810190601f16801561037d5780820380516001836020036101000a031916815260200191505b5095505050505050604051809103906000f0801580156103a1573d6000803e3d6000fd5b506001805480820182556000919091527fb10e2d527612073b26eecdfd717e6a320cf44b4afac2b0732d9fcbe2b7fa0cf601805473ffffffffffffffffffffffffffffffffffffffff1916600160a060020a03831617905595945050505050565b6001818154811061040f57fe5b600091825260209091200154600160a060020a0316905081565b6060600180548060200260200160405190810160405280929190818152602001828054801561048157602002820191906000526020600020905b8154600160a060020a03168152600190910190602001808311610463575b5050505050905090565b611e0d806104998339019056fe608060405260405162001e0d38038062001e0d833981810160405260808110156200002957600080fd5b8151602083018051604051929492938301929190846401000000008211156200005157600080fd5b9083019060208201858111156200006757600080fd5b82516401000000008111828201881017156200008257600080fd5b82525081516020918201929091019080838360005b83811015620000b157818101518382015260200162000097565b50505050905090810190601f168015620000df5780820380516001836020036101000a031916815260200191505b506040908152602082810151929091015160008054600160a060020a031916600160a060020a038916179055855192945092506200012391600191860190620001c9565b5060025560038054600160ff199182168117909255600a928355600b8054909116909117905560098054750100000000000000000000000000000000000000000060a060020a61ffff02199182168117909255426004819055670de0b6b3a7640000600681905562278d0060078190556276a700600881905560148054909516909517909355600c91909155600e55600f556010556011819055601255506200026e9050565b828054600181600116156101000203166002900490600052602060002090601f016020900481019282601f106200020c57805160ff19168380011785556200023c565b828001600101855582156200023c579182015b828111156200023c5782518255916020019190600101906200021f565b506200024a9291506200024e565b5090565b6200026b91905b808211156200024a576000815560010162000255565b90565b611b8f806200027e6000396000f3fe608060405260043610610147576000357c01000000000000000000000000000000000000000000000000000000009004806382996d9f116100c8578063ac9f02221161008c578063ac9f022214610476578063b29b5366146104a2578063b9152607146104ce578063f4ed9c7814610521578063f7497ec3146105cd578063fe73030c146105d557610147565b806382996d9f146103d7578063893d20e8146103df5780638c33a6401461041057806390e1b4441461043c578063a6f2ae3a1461046e57610147565b80635ff3fb7d1161010f5780635ff3fb7d146102eb578063622097151461030057806369a3c7e51461032e5780636d28ad57146103365780636eb956de1461039957610147565b80630f9a5e081461014957806312065fe01461020357806313af40351461022a5780632dcfdd04146102645780634b9a138514610279575b005b34801561015557600080fd5b506101476004803603606081101561016c57600080fd5b81019060208101813564010000000081111561018757600080fd5b82018360208201111561019957600080fd5b803590602001918460018302840111640100000000831117156101bb57600080fd5b91908080601f016020809104026020016040519081016040528093929190818152602001838380828437600092019190915250929550508235935050506020013515156105dd565b34801561020f57600080fd5b506102186106ca565b60408051918252519081900360200190f35b6102506004803603602081101561024057600080fd5b5035600160a060020a03166106d0565b604080519115158252519081900360200190f35b34801561027057600080fd5b5061014761070c565b34801561028557600080fd5b5061028e6107d4565b604080519a8b5260208b0199909952898901979097526060890195909552608088019390935260a087019190915260c0860152600160a060020a031660e08501521515610100840152151561012083015251908190036101400190f35b3480156102f757600080fd5b5061014761081b565b34801561030c57600080fd5b50610315610945565b6040805192835290151560208301528051918290030190f35b610147610952565b34801561034257600080fd5b5061034b610adb565b6040805198895260208901979097528787019590955260608701939093526080860191909152600160a060020a031660a0850152151560c0840152151560e083015251908190036101000190f35b3480156103a557600080fd5b50610147600480360360808110156103bc57600080fd5b50803590602081013590604081013590606001351515610b16565b610147610cff565b3480156103eb57600080fd5b506103f4610e7e565b60408051600160a060020a039092168252519081900360200190f35b34801561041c57600080fd5b506101476004803603602081101561043357600080fd5b50351515610e8d565b34801561044857600080fd5b506101476004803603604081101561045f57600080fd5b50803590602001351515610ed1565b610147610f00565b34801561048257600080fd5b506101476004803603602081101561049957600080fd5b50351515610fdd565b3480156104ae57600080fd5b50610147600480360360208110156104c557600080fd5b50351515611006565b3480156104da57600080fd5b50610147600480360360c08110156104f157600080fd5b50803590602081013590604081013590606081013590608081013515159060a00135600160a060020a031661104a565b34801561052d57600080fd5b506105366112a6565b60408051600160a060020a0386168152908101839052811515606082015260806020808301828152865192840192909252855160a084019187019080838360005b8381101561058f578181015183820152602001610577565b50505050905090810190601f1680156105bc5780820380516001836020036101000a031916815260200191505b509550505050505060405180910390f35b610147611366565b61014761151c565b600054600190600160a060020a031633141561061f5783516106069060019060208701906117d5565b5060028390556003805460ff191683151517905561066f565b6040805160e560020a62461bcd02815260206004820152601360248201527f594f5520415245204e4f54204f574e4552202100000000000000000000000000604482015290519081900360640190fd5b6106c4565b6040805160e560020a62461bcd02815260206004820152601760248201527f594f5520415245204f574e455220414c52454144592021000000000000000000604482015290519081900360640190fd5b50505050565b30315b90565b60008054600190600160a060020a031633141561061f5760008054600160a060020a031916600160a060020a0385161790556001915050919050565b600054600190600160a060020a031633141561061f576005544210156107665760405160e560020a62461bcd02815260040180806020018281038252602a815260200180611a43602a913960400191505060405180910390fd5b60095460a060020a900460ff166107b15760405160e560020a62461bcd028152600401808060200182810382526023815260200180611a926023913960400191505060405180910390fd5b6009805475ffffffffffffffffffffffffffffffffffffffffffff191690555b50565b600c54600d54600e54600f54601054601154601254601354601454600160a060020a039091169060ff60a060020a820481169160a860020a90041690919293949596979899565b600054600190600160a060020a031633141561061f57600d544210156108755760405160e560020a62461bcd02815260040180806020018281038252602a815260200180611a43602a913960400191505060405180910390fd5b60145460a060020a900460ff166108c05760405160e560020a62461bcd02815260040180806020018281038252602d8152602001806118f7602d913960400191505060405180910390fd5b601354604051600160a060020a0390911690303180156108fc02916000818181858888f193505050501580156108fa573d6000803e3d6000fd5b5060138054600160a060020a03191690556014805475ffff000000000000000000000000000000000000000019169055600b805460ff1916600117905542600c819055600d556107d1565b600a54600b5460ff169091565b60006109af565b6040805160e560020a62461bcd02815260206004820152601e60248201527f5452414e53414354494f4e204e4f5420454e4f55474820455448455220210000604482015290519081900360640190fd5b506107d1565b600054600160a060020a03163314610674576006548034106109595760095460a060020a900460ff1680156109ee5750600954600160a060020a031633145b610a2c5760405160e560020a62461bcd028152600401808060200182810382526028815260200180611ae16028913960400191505060405180910390fd5b60045460055410610a715760405160e560020a62461bcd0281526004018080602001828103825260228152602001806118a66022913960400191505060405180910390fd5b600054600654610a8a91600160a060020a0316906116ce565b60075460058054909101905560095460408051600160a060020a039092168252517fcb07f57e2806563e485fc164eeceb48bd150ea1a389a41acd39d27d95752e0979181900360200190a1506107d1565b600454600554600654600754600854600954600160a060020a0381169060ff60a060020a820481169160a860020a9004169091929394959697565b600054600190600160a060020a031633141561061f576000610bfb565b84841015610b755760405160e560020a62461bcd02815260040180806020018281038252603881526020018061186e6038913960400191505060405180910390fd5b848481610b7e57fe5b0615610bbe5760405160e560020a62461bcd02815260040180806020018281038252602c815260200180611ab5602c913960400191505060405180910390fd5b6006869055600785905560088490556009805475ff000000000000000000000000000000000000000000191660a860020a85151502179055610cf7565b60095460a060020a900460ff16158015610c1e5750600954600160a060020a0316155b15610ca75760008611610c655760405160e560020a62461bcd0281526004018080602001828103825260268152602001806119786026913960400191505060405180910390fd5b60008511610b335760405160e560020a62461bcd0281526004018080602001828103825260248152602001806119fa6024913960400191505060405180910390fd5b6040805160e560020a62461bcd02815260206004820152601f60248201527f54484520484f5553452049532043555252454e544c592052454e544544202100604482015290519081900360640190fd5b505050505050565b60095460a860020a900460ff168015610d22575060095460a060020a900460ff16155b15610e2c5760008054600160a060020a031633146106745760065480341061095957600454421015610d885760405160e560020a62461bcd028152600401808060200182810382526025815260200180611a1e6025913960400191505060405180910390fd5b600054600654610da191600160a060020a0316906116ce565b60085442908101600455600754016005556009805474ff000000000000000000000000000000000000000019600160a060020a031990911633171660a060020a179081905560408051600160a060020a03929092168252517fd98e212306bf7d503620a9302294200aa29d41204aab082f71092c88a27e5cb99181900360200190a15b505b50610e7c565b6040805160e560020a62461bcd02815260206004820152601c60248201527f594f552043414e4e4f542052454e54205448495320484f555345202100000000604482015290519081900360640190fd5b565b600054600160a060020a031690565b600054600190600160a060020a031633141561061f576014805475ff000000000000000000000000000000000000000000191660a860020a841515021790555b5050565b600054600190600160a060020a031633141561061f57600a839055600b805460ff19168315151790555b505050565b600b5460ff1615610f8d5760008054600160a060020a0316331461067457600054600a54610f3791600160a060020a0316906116ce565b60008054600160a060020a03191633179081905560408051600160a060020a03929092168252517f0e240929895e4b92a221f9afc5a368e8c21bbb8d724511edd6e92445cfa9882e9181900360200190a1610e26565b6040805160e560020a62461bcd02815260206004820152601b60248201527f594f552043414e4e4f5420425559205448495320484f55534520210000000000604482015290519081900360640190fd5b600054600190600160a060020a031633141561061f576003805460ff1916831515179055610ecd565b600054600190600160a060020a031633141561061f576009805475ff000000000000000000000000000000000000000000191660a860020a84151502179055610ecd565b600054600190600160a060020a031633141561061f5760006111b5565b600086116110a95760405160e560020a62461bcd0281526004018080602001828103825260248152602001806119fa6024913960400191505060405180910390fd5b858510156110eb5760405160e560020a62461bcd02815260040180806020018281038252603881526020018061186e6038913960400191505060405180910390fd5b8585816110f457fe5b06156111345760405160e560020a62461bcd02815260040180806020018281038252602c815260200180611ab5602c913960400191505060405180910390fd5b6000606488600201600a54028161114757fe5b04600a54019050858782028161115957fe5b04600e5550600f86905560108590556014805475ff000000000000000000000000000000000000000000191660a860020a8615150217600160a060020a031916600160a060020a0385161790556011879055601288905561129c565b60145460a060020a900460ff161580156111d85750601354600160a060020a0316155b156112625760648811156112205760405160e560020a62461bcd02815260040180806020018281038252602b815260200180611b09602b913960400191505060405180910390fd5b600087116110675760405160e560020a62461bcd028152600401808060200182810382526025815260200180611a6d6025913960400191505060405180910390fd5b60405160e560020a62461bcd0281526004018080602001828103825260238152602001806119246023913960400191505060405180910390fd5b5050505050505050565b600080546002805460035460018054604080516020601f6000198587161561010002019094169790970492830187900487028101870190915281815260609688968796600160a060020a0390921695919360ff909216929185918301828280156113515780601f1061132657610100808354040283529160200191611351565b820191906000526020600020905b81548152906001019060200180831161133457829003601f168201915b50505050509250935093509350935090919293565b600061145a565b61137b600e54601254611734565b600f54600d805490910190819055600c54116114555760008054604051600160a060020a0390911691303180156108fc02929091818181858888f193505050501580156113cc573d6000803e3d6000fd5b506013805460008054600160a060020a03808416600160a060020a0319928316179283905592169092556014805475ffff00000000000000000000000000000000000000001916905542600c819055600d5560408051929091168252517f0e240929895e4b92a221f9afc5a368e8c21bbb8d724511edd6e92445cfa9882e916020908290030190a15b6109a9565b600054600160a060020a0316331461067457600e548034106109595760145460a060020a900460ff1680156114995750601354600160a060020a031633145b6114d75760405160e560020a62461bcd02815260040180806020018281038252602e81526020018061199e602e913960400191505060405180910390fd5b600c54600d541061136d5760405160e560020a62461bcd028152600401808060200182810382526027815260200180611b346027913960400191505060405180910390fd5b60145460a860020a900460ff16801561153f575060145460a060020a900460ff16155b156116945760008054600160a060020a0316331461067457600e5480341061095957600c544210156115a55760405160e560020a62461bcd02815260040180806020018281038252602f8152602001806118c8602f913960400191505060405180910390fd5b601454600160a060020a031633146115f15760405160e560020a62461bcd0281526004018080602001828103825260318152602001806119476031913960400191505060405180910390fd5b6115ff600e54601254611734565b60105442908101600c55600f5401600d5560138054600160a060020a0319163317908190556014805474ffffffffffffffffffffffffffffffffffffffffff191660a060020a179055600b805460ff1916905560408051600160a060020a03929092168252517f7b580e289b0cd36ff5d70b1233d6b66036f903a7c7a881a4d1d33cd515e345059181900360200190a1610e24565b60405160e560020a62461bcd02815260040180806020018281038252602e8152602001806119cc602e913960400191505060405180910390fd5b604051600160a060020a0383169082156108fc029083906000818181858888f19350505050158015611704573d6000803e3d6000fd5b5060405133903483900380156108fc02916000818181858888f19350505050158015610efb573d6000803e3d6000fd5b6040516064828402049030906108fc8315029083906000818181858888f19350505050158015611768573d6000803e3d6000fd5b5060008054604051600160a060020a039091169183860380156108fc02929091818181858888f193505050501580156117a5573d6000803e3d6000fd5b5060405133903485900380156108fc02916000818181858888f193505050501580156106c4573d6000803e3d6000fd5b828054600181600116156101000203166002900490600052602060002090601f016020900481019282601f1061181657805160ff1916838001178555611843565b82800160010185558215611843579182015b82811115611843578251825591602001919060010190611828565b5061184f929150611853565b5090565b6106cd91905b8082111561184f576000815560010161185956fe4455524154494f4e204d5553542042452047524541544552205448414e204f5220455155414c20544f205041594d454e542053544550202152454e54414c20434f4e5452414354205041594d454e54204f56455254494d45202154484520484f5553452049532043555252454e544c5920494e20494e5354414c4c4d454e542050524f43455353202154484520484f55534520484153204e4f54204245454e20494e5354414c4c4d454e54205041494420594554202154484520484f5553452049532043555252454e544c5920494e2050524f434553532021594f55522041444452455353204953204e4f5420414343455054454420544f2052454e54205448495320484f55534520215041594d454e5420434841524745204d555354204245204c4152474552205448414e20302021594f5520415245204e4f54204255594552204f5220484f555345204953204e4f5420494e2050524f434553532021594f552043414e4e4f542050415920425920494e5354414c4c4d454e5420464f52205448495320484f55534520215041594d454e542053544550204d555354204245204c4152474552205448414e2030202154484520484f5553452049532043555252454e544c59204245494e472052454e5445442021495420484153204e4f54204245454e205945542052454143484544205041594d454e5420444154452021494e5445524553542052415445204d555354204245204c4152474552205448414e2030202154484520484f55534520484153204e4f54204245454e2052454e5445442059455420214455524154494f4e204d55535420424520444956495349424c45204259205041594d454e5420535445502021594f5520415245204e4f542052454e544552204f5220484f555345204e4f542052454e544544202152455041592052415445204d55535420424520494e204245545745454e20302520414e4420313030252021494e5354414c4c4d454e5420434f4e5452414354205041594d454e54204f56455254494d452021a265627a7a72315820923d5433bed39535fa26e192a380bee130f17b9f6f36c623d5aca4df2c53812e64736f6c63430005100032a265627a7a7231582087834c6609e905d248923a09c84a0eca09cbd60004d45f65761761e042ca271f64736f6c63430005100032",
  "source": "pragma solidity ^0.5.0;\n\nimport \"./Authentication.sol\";\nimport \"./House.sol\";\n\ncontract HouseAdmin is Authentication {\n\n    House[] public houses;\n\n    constructor() public {\n        owner = msg.sender;\n    }\n\n    event Log(string text);\n\n    function sellHouse(string memory _location, uint256 _price, uint256 _area) public returns (House _houseAddress) {\n        // Create new house instance as passing arguments to its constructor !\n        House house = new House(msg.sender, _location, _price * 1 ether, _area);\n        houses.push(house);\n        return house;\n    }\n\n    function getAllHouses() public view returns (House[] memory) {\n        return houses;\n    }\n\n    /* Fallback methods ! */\n    function() external payable {\n        /* Fallback function ! */\n    }\n\n}\n",
  "sourcePath": "D:\\Work\\Thesis_ThinhHuynh_2019\\Real-Estate-API\\contracts\\HouseAdmin.sol",
  "compiler": {
    "name": "solc",
    "version": "0.5.16+commit.9c3226ce.Emscripten.clang"
  },
  "schemaVersion": "3.0.23",
  "updatedAt": "2020-02-18T23:01:11.799Z",
  "networkType": "ethereum",
  "devdoc": {
    "methods": {}
  },
  "userdoc": {
    "methods": {}
  }
}