{
  "contractName": "House",
  "abi": [
    {
      "inputs": [
        {
          "internalType": "address payable",
          "name": "_owner",
          "type": "address"
        },
        {
          "internalType": "string",
          "name": "_location",
          "type": "string"
        },
        {
          "internalType": "uint256",
          "name": "_price",
          "type": "uint256"
        },
        {
          "internalType": "uint256",
          "name": "_area",
          "type": "uint256"
        }
      ],
      "payable": true,
      "stateMutability": "payable",
      "type": "constructor"
    },
    {
      "anonymous": false,
      "inputs": [
        {
          "indexed": false,
          "internalType": "address",
          "name": "renter",
          "type": "address"
        }
      ],
      "name": "ExtendSuccess",
      "type": "event"
    },
    {
      "anonymous": false,
      "inputs": [
        {
          "indexed": false,
          "internalType": "address",
          "name": "renter",
          "type": "address"
        }
      ],
      "name": "InitializeInstallmentSuccess",
      "type": "event"
    },
    {
      "anonymous": false,
      "inputs": [
        {
          "indexed": false,
          "internalType": "string",
          "name": "text",
          "type": "string"
        }
      ],
      "name": "Logger",
      "type": "event"
    },
    {
      "anonymous": false,
      "inputs": [
        {
          "indexed": false,
          "internalType": "address",
          "name": "renter",
          "type": "address"
        }
      ],
      "name": "RentSuccess",
      "type": "event"
    },
    {
      "anonymous": false,
      "inputs": [
        {
          "indexed": false,
          "internalType": "address payable",
          "name": "newOwner",
          "type": "address"
        }
      ],
      "name": "TransferOwnerSuccess",
      "type": "event"
    },
    {
      "payable": true,
      "stateMutability": "payable",
      "type": "fallback"
    },
    {
      "constant": false,
      "inputs": [],
      "name": "buy",
      "outputs": [],
      "payable": true,
      "stateMutability": "payable",
      "type": "function"
    },
    {
      "constant": false,
      "inputs": [],
      "name": "chargeInstallmentContract",
      "outputs": [],
      "payable": true,
      "stateMutability": "payable",
      "type": "function"
    },
    {
      "constant": false,
      "inputs": [],
      "name": "chargeRentalContract",
      "outputs": [],
      "payable": true,
      "stateMutability": "payable",
      "type": "function"
    },
    {
      "constant": true,
      "inputs": [],
      "name": "getBuyDetail",
      "outputs": [
        {
          "internalType": "uint256",
          "name": "_price",
          "type": "uint256"
        },
        {
          "internalType": "bool",
          "name": "_canBuyImmediately",
          "type": "bool"
        }
      ],
      "payable": false,
      "stateMutability": "view",
      "type": "function"
    },
    {
      "constant": true,
      "inputs": [],
      "name": "getHouseDetail",
      "outputs": [
        {
          "internalType": "address payable",
          "name": "_owner",
          "type": "address"
        },
        {
          "internalType": "string",
          "name": "_location",
          "type": "string"
        },
        {
          "internalType": "uint256",
          "name": "_area",
          "type": "uint256"
        },
        {
          "internalType": "bool",
          "name": "_active",
          "type": "bool"
        }
      ],
      "payable": false,
      "stateMutability": "view",
      "type": "function"
    },
    {
      "constant": true,
      "inputs": [],
      "name": "getInstallmentDetail",
      "outputs": [
        {
          "internalType": "uint256",
          "name": "_installmentDueDate",
          "type": "uint256"
        },
        {
          "internalType": "uint256",
          "name": "_installmentPaymentDate",
          "type": "uint256"
        },
        {
          "internalType": "uint256",
          "name": "_installmentPaymentCharge",
          "type": "uint256"
        },
        {
          "internalType": "uint256",
          "name": "_installmentPaymentStep",
          "type": "uint256"
        },
        {
          "internalType": "uint256",
          "name": "_installmentDuration",
          "type": "uint256"
        },
        {
          "internalType": "address payable",
          "name": "_installmentBuyer",
          "type": "address"
        },
        {
          "internalType": "bool",
          "name": "_inInstallmentProcess",
          "type": "bool"
        },
        {
          "internalType": "bool",
          "name": "_canInstallmentPaid",
          "type": "bool"
        }
      ],
      "payable": false,
      "stateMutability": "view",
      "type": "function"
    },
    {
      "constant": true,
      "inputs": [],
      "name": "getOwner",
      "outputs": [
        {
          "internalType": "address payable",
          "name": "_currentOwner",
          "type": "address"
        }
      ],
      "payable": false,
      "stateMutability": "view",
      "type": "function"
    },
    {
      "constant": true,
      "inputs": [],
      "name": "getRentalDetail",
      "outputs": [
        {
          "internalType": "uint256",
          "name": "_rentalDueDate",
          "type": "uint256"
        },
        {
          "internalType": "uint256",
          "name": "_rentalPaymentDate",
          "type": "uint256"
        },
        {
          "internalType": "uint256",
          "name": "_rentalPaymentCharge",
          "type": "uint256"
        },
        {
          "internalType": "uint256",
          "name": "_rentalPaymentStep",
          "type": "uint256"
        },
        {
          "internalType": "uint256",
          "name": "_rentalDuration",
          "type": "uint256"
        },
        {
          "internalType": "address",
          "name": "_renter",
          "type": "address"
        },
        {
          "internalType": "bool",
          "name": "_rented",
          "type": "bool"
        },
        {
          "internalType": "bool",
          "name": "_canRent",
          "type": "bool"
        }
      ],
      "payable": false,
      "stateMutability": "view",
      "type": "function"
    },
    {
      "constant": false,
      "inputs": [],
      "name": "installmentPayment",
      "outputs": [],
      "payable": true,
      "stateMutability": "payable",
      "type": "function"
    },
    {
      "constant": false,
      "inputs": [],
      "name": "rent",
      "outputs": [],
      "payable": true,
      "stateMutability": "payable",
      "type": "function"
    },
    {
      "constant": false,
      "inputs": [],
      "name": "resetInstallmentContract",
      "outputs": [],
      "payable": false,
      "stateMutability": "nonpayable",
      "type": "function"
    },
    {
      "constant": false,
      "inputs": [],
      "name": "resetRentalContract",
      "outputs": [],
      "payable": false,
      "stateMutability": "nonpayable",
      "type": "function"
    },
    {
      "constant": false,
      "inputs": [
        {
          "internalType": "address payable",
          "name": "_to",
          "type": "address"
        },
        {
          "internalType": "uint256",
          "name": "_amount",
          "type": "uint256"
        }
      ],
      "name": "safeTransferTo",
      "outputs": [],
      "payable": true,
      "stateMutability": "payable",
      "type": "function"
    },
    {
      "constant": false,
      "inputs": [
        {
          "internalType": "uint256",
          "name": "_price",
          "type": "uint256"
        },
        {
          "internalType": "bool",
          "name": "_canBuyImmediately",
          "type": "bool"
        }
      ],
      "name": "setBuyPayment",
      "outputs": [],
      "payable": false,
      "stateMutability": "nonpayable",
      "type": "function"
    },
    {
      "constant": false,
      "inputs": [
        {
          "internalType": "string",
          "name": "_location",
          "type": "string"
        },
        {
          "internalType": "uint256",
          "name": "_area",
          "type": "uint256"
        },
        {
          "internalType": "bool",
          "name": "_active",
          "type": "bool"
        }
      ],
      "name": "setHouseDetail",
      "outputs": [],
      "payable": false,
      "stateMutability": "nonpayable",
      "type": "function"
    },
    {
      "constant": false,
      "inputs": [
        {
          "internalType": "bool",
          "name": "_canInstallmentPaid",
          "type": "bool"
        }
      ],
      "name": "setInstallable",
      "outputs": [],
      "payable": false,
      "stateMutability": "nonpayable",
      "type": "function"
    },
    {
      "constant": false,
      "inputs": [
        {
          "internalType": "uint256",
          "name": "_interestRate",
          "type": "uint256"
        },
        {
          "internalType": "uint256",
          "name": "_installmentPaymentStep",
          "type": "uint256"
        },
        {
          "internalType": "uint256",
          "name": "_installmentDuration",
          "type": "uint256"
        },
        {
          "internalType": "bool",
          "name": "_canInstallmentPaid",
          "type": "bool"
        }
      ],
      "name": "setInstallmentPayment",
      "outputs": [],
      "payable": false,
      "stateMutability": "nonpayable",
      "type": "function"
    },
    {
      "constant": false,
      "inputs": [
        {
          "internalType": "address payable",
          "name": "_newOwner",
          "type": "address"
        }
      ],
      "name": "setOwner",
      "outputs": [
        {
          "internalType": "bool",
          "name": "_success",
          "type": "bool"
        }
      ],
      "payable": true,
      "stateMutability": "payable",
      "type": "function"
    },
    {
      "constant": false,
      "inputs": [
        {
          "internalType": "bool",
          "name": "_allowRent",
          "type": "bool"
        }
      ],
      "name": "setRentable",
      "outputs": [],
      "payable": false,
      "stateMutability": "nonpayable",
      "type": "function"
    },
    {
      "constant": false,
      "inputs": [
        {
          "internalType": "uint256",
          "name": "_rentalPaymentCharge",
          "type": "uint256"
        },
        {
          "internalType": "uint256",
          "name": "_rentalPaymentStep",
          "type": "uint256"
        },
        {
          "internalType": "uint256",
          "name": "_rentalDuration",
          "type": "uint256"
        },
        {
          "internalType": "bool",
          "name": "_allowRent",
          "type": "bool"
        }
      ],
      "name": "setRentalPayment",
      "outputs": [],
      "payable": false,
      "stateMutability": "nonpayable",
      "type": "function"
    },
    {
      "constant": false,
      "inputs": [
        {
          "internalType": "bool",
          "name": "_active",
          "type": "bool"
        }
      ],
      "name": "setState",
      "outputs": [],
      "payable": false,
      "stateMutability": "nonpayable",
      "type": "function"
    }
  ],
  "bytecode": "0x6080604052604051620014c2380380620014c2833981810160405260808110156200002957600080fd5b8151602083018051604051929492938301929190846401000000008211156200005157600080fd5b9083019060208201858111156200006757600080fd5b82516401000000008111828201881017156200008257600080fd5b82525081516020918201929091019080838360005b83811015620000b157818101518382015260200162000097565b50505050905090810190601f168015620000df5780820380516001836020036101000a031916815260200191505b506040908152602082810151929091015160008054600160a060020a031916600160a060020a03891617905585519294509250620001239160019186019062000197565b5060025560038054600160ff199182168117909255600a92909255600b805490921617905550506009805460a060020a61ffff0219908116909155670de0b6b3a7640000600681905562278d006007819055600881905560118054909316909255600e55600f556276a7006010556200023c565b828054600181600116156101000203166002900490600052602060002090601f016020900481019282601f10620001da57805160ff19168380011785556200020a565b828001600101855582156200020a579182015b828111156200020a578251825591602001919060010190620001ed565b50620002189291506200021c565b5090565b6200023991905b8082111562000218576000815560010162000223565b90565b611276806200024c6000396000f3fe608060405260043610610147576000357c010000000000000000000000000000000000000000000000000000000090048063893d20e8116100c8578063ac9f02221161008c578063ac9f022214610430578063b29b53661461045c578063f4ed9c7814610488578063f7497ec314610534578063fa752a471461053c578063fe73030c1461056857610147565b8063893d20e81461035b5780638c33a6401461038c5780638e911059146103b857806390e1b444146103f6578063a6f2ae3a1461042857610147565b8063622097151161010f57806362209715146102ca57806369a3c7e5146102f85780636d28ad57146103005780636eb956de1461031557806382996d9f1461035357610147565b80630f9a5e081461014957806313af4035146102035780632dcfdd041461023d5780634b9a1385146102525780635ff3fb7d146102b5575b005b34801561015557600080fd5b506101476004803603606081101561016c57600080fd5b81019060208101813564010000000081111561018757600080fd5b82018360208201111561019957600080fd5b803590602001918460018302840111640100000000831117156101bb57600080fd5b91908080601f01602080910402602001604051908101604052809392919081815260200183838082843760009201919091525092955050823593505050602001351515610570565b6102296004803603602081101561021957600080fd5b5035600160a060020a031661065d565b604080519115158252519081900360200190f35b34801561024957600080fd5b506101476106a6565b34801561025e57600080fd5b506102676106ee565b6040805198895260208901979097528787019590955260608701939093526080860191909152600160a060020a031660a0850152151560c0840152151560e083015251908190036101000190f35b3480156102c157600080fd5b50610147610729565b3480156102d657600080fd5b506102df610772565b6040805192835290151560208301528051918290030190f35b61014761077f565b34801561030c57600080fd5b5061026761089e565b34801561032157600080fd5b506101476004803603608081101561033857600080fd5b508035906020810135906040810135906060013515156108d9565b6101476109ae565b34801561036757600080fd5b50610370610b05565b60408051600160a060020a039092168252519081900360200190f35b34801561039857600080fd5b50610147600480360360208110156103af57600080fd5b50351515610b15565b3480156103c457600080fd5b50610147600480360360808110156103db57600080fd5b50803590602081013590604081013590606001351515610b59565b34801561040257600080fd5b506101476004803603604081101561041957600080fd5b50803590602001351515610c32565b610147610c61565b34801561043c57600080fd5b506101476004803603602081101561045357600080fd5b50351515610d4b565b34801561046857600080fd5b506101476004803603602081101561047f57600080fd5b50351515610d74565b34801561049457600080fd5b5061049d610db8565b60408051600160a060020a0386168152908101839052811515606082015260806020808301828152865192840192909252855160a084019187019080838360005b838110156104f65781810151838201526020016104de565b50505050905090810190601f1680156105235780820380516001836020036101000a031916815260200191505b509550505050505060405180910390f35b610147610e78565b6101476004803603604081101561055257600080fd5b50600160a060020a038135169060200135610fb7565b61014761101d565b600054600190600160a060020a03163314156105b2578351610599906001906020870190611158565b5060028390556003805460ff1916831515179055610602565b6040805160e560020a62461bcd02815260206004820152601360248201527f594f5520415245204e4f54204f574e4552202100000000000000000000000000604482015290519081900360640190fd5b610657565b6040805160e560020a62461bcd02815260206004820152601760248201527f594f5520415245204f574e455220414c52454144592021000000000000000000604482015290519081900360640190fd5b50505050565b60008054600190600160a060020a03163314156105b2576000805473ffffffffffffffffffffffffffffffffffffffff1916600160a060020a0385161790556001915050919050565b600054600190600160a060020a03163314156105b2576005544210156106cb57600080fd5b6009805475ffffffffffffffffffffffffffffffffffffffffffff191690555b50565b600c54600d54600e54600f54601054601154600160a060020a0381169060ff60a060020a820481169160a860020a9004169091929394959697565b600054600190600160a060020a03163314156105b257600d5442101561074e57600080fd5b6011805475ffffffffffffffffffffffffffffffffffffffffffff191690556106eb565b600a54600b5460ff169091565b60006107dc565b6040805160e560020a62461bcd02815260206004820152601e60248201527f5452414e53414354494f4e204e4f5420454e4f55474820455448455220210000604482015290519081900360640190fd5b506106eb565b600054600160a060020a03163314610607576006548034106107865760095460a060020a900460ff16801561081b5750600954600160a060020a031633145b61082457600080fd5b6004546005541061083457600080fd5b60005460065461084d91600160a060020a031690610fb7565b60075460058054909101905560095460408051600160a060020a039092168252517fcb07f57e2806563e485fc164eeceb48bd150ea1a389a41acd39d27d95752e0979181900360200190a1506106eb565b600454600554600654600754600854600954600160a060020a0381169060ff60a060020a820481169160a860020a9004169091929394959697565b600054600190600160a060020a03163314156105b257600060095460a060020a900460ff161580156109145750600954600160a060020a0316155b15610956576006869055600785905560088490556009805475ff000000000000000000000000000000000000000000191660a860020a851515021790556109a6565b6040805160e560020a62461bcd02815260206004820152601f60248201527f54484520484f5553452049532043555252454e544c592052454e544544202100604482015290519081900360640190fd5b505050505050565b60095460a860020a900460ff1680156109d1575060095460a060020a900460ff16155b15610ab35760008054600160a060020a031633146106075760065480341061078657600454421015610a0257600080fd5b600054600654610a1b91600160a060020a031690610fb7565b60085442908101600455600754016005556009805474ff00000000000000000000000000000000000000001973ffffffffffffffffffffffffffffffffffffffff1990911633171660a060020a179081905560408051600160a060020a03929092168252517fd98e212306bf7d503620a9302294200aa29d41204aab082f71092c88a27e5cb99181900360200190a15b505b50610b03565b6040805160e560020a62461bcd02815260206004820152601c60248201527f594f552043414e4e4f542052454e54205448495320484f555345202100000000604482015290519081900360640190fd5b565b600054600160a060020a03165b90565b600054600190600160a060020a03163314156105b2576011805475ff000000000000000000000000000000000000000000191660a860020a841515021790555b5050565b600054600190600160a060020a03163314156105b257600060115460a060020a900460ff16158015610b945750601154600160a060020a0316155b15610bf8576000606487600a540281610ba957fe5b04600a540190508486820281610bbb57fe5b04600e5550600f85905560108490556011805475ff000000000000000000000000000000000000000000191660a860020a851515021790556109a6565b60405160e560020a62461bcd0281526004018080602001828103825260238152602001806111f16023913960400191505060405180910390fd5b600054600190600160a060020a03163314156105b257600a839055600b805460ff19168315151790555b505050565b600b5460ff1615610cfb5760008054600160a060020a0316331461060757600054600a54610c9891600160a060020a031690610fb7565b6000805473ffffffffffffffffffffffffffffffffffffffff191633179081905560408051600160a060020a03929092168252517f0e240929895e4b92a221f9afc5a368e8c21bbb8d724511edd6e92445cfa9882e9181900360200190a1610aad565b6040805160e560020a62461bcd02815260206004820152601b60248201527f594f552043414e4e4f5420425559205448495320484f55534520210000000000604482015290519081900360640190fd5b600054600190600160a060020a03163314156105b2576003805460ff1916831515179055610b55565b600054600190600160a060020a03163314156105b2576009805475ff000000000000000000000000000000000000000000191660a860020a84151502179055610b55565b600080546002805460035460018054604080516020601f6000198587161561010002019094169790970492830187900487028101870190915281815260609688968796600160a060020a0390921695919360ff90921692918591830182828015610e635780601f10610e3857610100808354040283529160200191610e63565b820191906000526020600020905b815481529060010190602001808311610e4657829003601f168201915b50505050509250935093509350935090919293565b6000610f6f565b600f54600d805490910190819055600c5411610f6a576011546000805473ffffffffffffffffffffffffffffffffffffffff1916600160a060020a03909216919091178155604080517f5ff3fb7d00000000000000000000000000000000000000000000000000000000815290513092635ff3fb7d926004808201939182900301818387803b158015610f1157600080fd5b505af1158015610f25573d6000803e3d6000fd5b505060005460408051600160a060020a039092168252517f0e240929895e4b92a221f9afc5a368e8c21bbb8d724511edd6e92445cfa9882e9350908190036020019150a15b6107d6565b600054600160a060020a0316331461060757600e5480341061078657601154600160a060020a03163314610fa257600080fd5b600054600e54610e7f91600160a060020a0316905b604051600160a060020a0383169082156108fc029083906000818181858888f19350505050158015610fed573d6000803e3d6000fd5b5060405133903483900380156108fc02916000818181858888f19350505050158015610c5c573d6000803e3d6000fd5b60115460a860020a900460ff168015611040575060115460a060020a900460ff16155b1561111e5760008054600160a060020a0316331461060757600e5480341061078657600c5442101561107157600080fd5b600054600e5461108a91600160a060020a031690610fb7565b60105442908101600c55600f5401600d556011805474ff00000000000000000000000000000000000000001973ffffffffffffffffffffffffffffffffffffffff1990911633171660a060020a179081905560408051600160a060020a03929092168252517f7b580e289b0cd36ff5d70b1233d6b66036f903a7c7a881a4d1d33cd515e345059181900360200190a1610aab565b60405160e560020a62461bcd02815260040180806020018281038252602e815260200180611214602e913960400191505060405180910390fd5b828054600181600116156101000203166002900490600052602060002090601f016020900481019282601f1061119957805160ff19168380011785556111c6565b828001600101855582156111c6579182015b828111156111c65782518255916020019190600101906111ab565b506111d29291506111d6565b5090565b610b1291905b808211156111d257600081556001016111dc56fe54484520484f5553452049532043555252454e544c5920494e2050524f434553532021594f552043414e4e4f542050415920425920494e5354414c4c4d454e5420464f52205448495320484f5553452021a265627a7a72315820d931718beaa0036f6b628a72a51cf976bb82a62d9061c9772e00137662d8afec64736f6c63430005100032",
  "source": "pragma solidity ^0.5.0;\n\nimport \"./Authentication.sol\";\nimport \"./HouseProperty.sol\";\nimport \"./Installable.sol\";\nimport \"./Rentable.sol\";\n\ncontract House is HouseProperty, Rentable, Installable {\n\n    event TransferOwnerSuccess(\n        address payable newOwner\n    );\n\n    constructor(address payable _owner, string memory _location, uint _price, uint _area) public payable {\n        /* Default Part */\n        owner = _owner;\n        /* House Property Part */\n        location = _location;\n        area = _area;\n        active = true;\n        /* Buying Part */\n        price = _price;\n        buyable = true;\n        /* Renting Part */\n        rented = false;\n        rentable = false;\n        rentalPaymentCharge = 1 ether;\n        rentalPaymentStep = 30 days;\n        rentalDuration = 30 days;\n        /* Installment Payment Part */\n        inProcess = false;\n        installable = false;\n        installmentPaymentCharge = 1 ether;\n        installmentPaymentStep = 30 days;\n        installmentDuration = 90 days;\n    }\n\n    /* Fallback methods ! */\n    function() external payable {\n        /* Fallback function ! */\n    }\n\n}\n",
  "sourcePath": "D:\\Work\\Thesis_ThinhHuynh_2019\\Real-Estate-API\\contracts\\House.sol",
  "compiler": {
    "name": "solc",
    "version": "0.5.16+commit.9c3226ce.Emscripten.clang"
  },
  "schemaVersion": "3.0.23",
  "updatedAt": "2020-02-14T15:53:52.725Z",
  "devdoc": {
    "methods": {}
  },
  "userdoc": {
    "methods": {}
  }
}