{
  "contractName": "House",
  "abi": [
    {
      "inputs": [
        {
          "internalType": "address payable",
          "name": "_ownerAddress",
          "type": "address"
        },
        {
          "internalType": "string",
          "name": "_name",
          "type": "string"
        },
        {
          "internalType": "string",
          "name": "_email",
          "type": "string"
        },
        {
          "internalType": "string",
          "name": "_phone",
          "type": "string"
        },
        {
          "internalType": "string",
          "name": "_location",
          "type": "string"
        },
        {
          "internalType": "string",
          "name": "_houseType",
          "type": "string"
        },
        {
          "internalType": "uint256",
          "name": "_bedrooms",
          "type": "uint256"
        },
        {
          "internalType": "uint256",
          "name": "_bathrooms",
          "type": "uint256"
        },
        {
          "internalType": "uint256",
          "name": "_area",
          "type": "uint256"
        },
        {
          "internalType": "uint256",
          "name": "_price",
          "type": "uint256"
        }
      ],
      "payable": true,
      "stateMutability": "payable",
      "type": "constructor"
    },
    {
      "anonymous": false,
      "inputs": [
        {
          "indexed": false,
          "internalType": "address payable",
          "name": "newOwner",
          "type": "address"
        },
        {
          "indexed": false,
          "internalType": "uint256",
          "name": "price",
          "type": "uint256"
        }
      ],
      "name": "TransferSuccess",
      "type": "event"
    },
    {
      "payable": true,
      "stateMutability": "payable",
      "type": "fallback"
    },
    {
      "constant": true,
      "inputs": [],
      "name": "getOwner",
      "outputs": [
        {
          "internalType": "address payable",
          "name": "_currentOwner",
          "type": "address"
        }
      ],
      "payable": false,
      "stateMutability": "view",
      "type": "function"
    },
    {
      "constant": false,
      "inputs": [
        {
          "internalType": "address payable",
          "name": "_newOwner",
          "type": "address"
        }
      ],
      "name": "setOwner",
      "outputs": [
        {
          "internalType": "bool",
          "name": "_success",
          "type": "bool"
        }
      ],
      "payable": true,
      "stateMutability": "payable",
      "type": "function"
    },
    {
      "constant": true,
      "inputs": [],
      "name": "getOwnerName",
      "outputs": [
        {
          "internalType": "string",
          "name": "_ownerName",
          "type": "string"
        }
      ],
      "payable": false,
      "stateMutability": "view",
      "type": "function"
    },
    {
      "constant": false,
      "inputs": [
        {
          "internalType": "string",
          "name": "_ownerName",
          "type": "string"
        }
      ],
      "name": "setOwnerName",
      "outputs": [],
      "payable": false,
      "stateMutability": "nonpayable",
      "type": "function"
    },
    {
      "constant": true,
      "inputs": [],
      "name": "getOwnerEmail",
      "outputs": [
        {
          "internalType": "string",
          "name": "_ownerEmail",
          "type": "string"
        }
      ],
      "payable": false,
      "stateMutability": "view",
      "type": "function"
    },
    {
      "constant": false,
      "inputs": [
        {
          "internalType": "string",
          "name": "_ownerEmail",
          "type": "string"
        }
      ],
      "name": "setOwnerEmail",
      "outputs": [],
      "payable": false,
      "stateMutability": "nonpayable",
      "type": "function"
    },
    {
      "constant": true,
      "inputs": [],
      "name": "getOwnerPhone",
      "outputs": [
        {
          "internalType": "string",
          "name": "_ownerPhone",
          "type": "string"
        }
      ],
      "payable": false,
      "stateMutability": "view",
      "type": "function"
    },
    {
      "constant": false,
      "inputs": [
        {
          "internalType": "string",
          "name": "_ownerPhone",
          "type": "string"
        }
      ],
      "name": "setOwnerPhone",
      "outputs": [],
      "payable": false,
      "stateMutability": "nonpayable",
      "type": "function"
    },
    {
      "constant": true,
      "inputs": [],
      "name": "getLocation",
      "outputs": [
        {
          "internalType": "string",
          "name": "_houseLocation",
          "type": "string"
        }
      ],
      "payable": false,
      "stateMutability": "view",
      "type": "function"
    },
    {
      "constant": false,
      "inputs": [
        {
          "internalType": "string",
          "name": "_houseLocation",
          "type": "string"
        }
      ],
      "name": "setLocation",
      "outputs": [],
      "payable": false,
      "stateMutability": "nonpayable",
      "type": "function"
    },
    {
      "constant": true,
      "inputs": [],
      "name": "getType",
      "outputs": [
        {
          "internalType": "string",
          "name": "_houseType",
          "type": "string"
        }
      ],
      "payable": false,
      "stateMutability": "view",
      "type": "function"
    },
    {
      "constant": false,
      "inputs": [
        {
          "internalType": "string",
          "name": "_houseType",
          "type": "string"
        }
      ],
      "name": "setType",
      "outputs": [],
      "payable": false,
      "stateMutability": "nonpayable",
      "type": "function"
    },
    {
      "constant": true,
      "inputs": [],
      "name": "getBedrooms",
      "outputs": [
        {
          "internalType": "uint256",
          "name": "_bedrooms",
          "type": "uint256"
        }
      ],
      "payable": false,
      "stateMutability": "view",
      "type": "function"
    },
    {
      "constant": false,
      "inputs": [
        {
          "internalType": "uint256",
          "name": "_bedrooms",
          "type": "uint256"
        }
      ],
      "name": "setBedrooms",
      "outputs": [],
      "payable": false,
      "stateMutability": "nonpayable",
      "type": "function"
    },
    {
      "constant": true,
      "inputs": [],
      "name": "getBathrooms",
      "outputs": [
        {
          "internalType": "uint256",
          "name": "_bathrooms",
          "type": "uint256"
        }
      ],
      "payable": false,
      "stateMutability": "view",
      "type": "function"
    },
    {
      "constant": false,
      "inputs": [
        {
          "internalType": "uint256",
          "name": "_bathrooms",
          "type": "uint256"
        }
      ],
      "name": "setBathrooms",
      "outputs": [],
      "payable": false,
      "stateMutability": "nonpayable",
      "type": "function"
    },
    {
      "constant": true,
      "inputs": [],
      "name": "getArea",
      "outputs": [
        {
          "internalType": "uint256",
          "name": "_area",
          "type": "uint256"
        }
      ],
      "payable": false,
      "stateMutability": "view",
      "type": "function"
    },
    {
      "constant": false,
      "inputs": [
        {
          "internalType": "uint256",
          "name": "_area",
          "type": "uint256"
        }
      ],
      "name": "setArea",
      "outputs": [],
      "payable": false,
      "stateMutability": "nonpayable",
      "type": "function"
    },
    {
      "constant": true,
      "inputs": [],
      "name": "getPrice",
      "outputs": [
        {
          "internalType": "uint256",
          "name": "_price",
          "type": "uint256"
        }
      ],
      "payable": false,
      "stateMutability": "view",
      "type": "function"
    },
    {
      "constant": false,
      "inputs": [
        {
          "internalType": "uint256",
          "name": "_price",
          "type": "uint256"
        }
      ],
      "name": "setPrice",
      "outputs": [],
      "payable": false,
      "stateMutability": "nonpayable",
      "type": "function"
    },
    {
      "constant": true,
      "inputs": [],
      "name": "getState",
      "outputs": [
        {
          "internalType": "bool",
          "name": "_active",
          "type": "bool"
        }
      ],
      "payable": false,
      "stateMutability": "view",
      "type": "function"
    },
    {
      "constant": false,
      "inputs": [
        {
          "internalType": "bool",
          "name": "_active",
          "type": "bool"
        }
      ],
      "name": "setState",
      "outputs": [],
      "payable": false,
      "stateMutability": "nonpayable",
      "type": "function"
    }
  ],
  "bytecode": "0x608060405260405162001aa538038062001aa583398181016040526101408110156200002a57600080fd5b8101908080519060200190929190805160405193929190846401000000008211156200005557600080fd5b838201915060208201858111156200006c57600080fd5b82518660018202830111640100000000821117156200008a57600080fd5b8083526020830192505050908051906020019080838360005b83811015620000c0578082015181840152602081019050620000a3565b50505050905090810190601f168015620000ee5780820380516001836020036101000a031916815260200191505b50604052602001805160405193929190846401000000008211156200011257600080fd5b838201915060208201858111156200012957600080fd5b82518660018202830111640100000000821117156200014757600080fd5b8083526020830192505050908051906020019080838360005b838110156200017d57808201518184015260208101905062000160565b50505050905090810190601f168015620001ab5780820380516001836020036101000a031916815260200191505b5060405260200180516040519392919084640100000000821115620001cf57600080fd5b83820191506020820185811115620001e657600080fd5b82518660018202830111640100000000821117156200020457600080fd5b8083526020830192505050908051906020019080838360005b838110156200023a5780820151818401526020810190506200021d565b50505050905090810190601f168015620002685780820380516001836020036101000a031916815260200191505b50604052602001805160405193929190846401000000008211156200028c57600080fd5b83820191506020820185811115620002a357600080fd5b8251866001820283011164010000000082111715620002c157600080fd5b8083526020830192505050908051906020019080838360005b83811015620002f7578082015181840152602081019050620002da565b50505050905090810190601f168015620003255780820380516001836020036101000a031916815260200191505b50604052602001805160405193929190846401000000008211156200034957600080fd5b838201915060208201858111156200036057600080fd5b82518660018202830111640100000000821117156200037e57600080fd5b8083526020830192505050908051906020019080838360005b83811015620003b457808201518184015260208101905062000397565b50505050905090810190601f168015620003e25780820380516001836020036101000a031916815260200191505b5060405260200180519060200190929190805190602001909291908051906020019092919080519060200190929190505050896000806101000a81548173ffffffffffffffffffffffffffffffffffffffff021916908373ffffffffffffffffffffffffffffffffffffffff16021790555088600190805190602001906200046c92919062000518565b5087600290805190602001906200048592919062000518565b5086600390805190602001906200049e92919062000518565b508560049080519060200190620004b792919062000518565b508460059080519060200190620004d092919062000518565b50836006819055508260078190555081600881905550806009819055506001600a60006101000a81548160ff02191690831515021790555050505050505050505050620005c7565b828054600181600116156101000203166002900490600052602060002090601f016020900481019282601f106200055b57805160ff19168380011785556200058c565b828001600101855582156200058c579182015b828111156200058b5782518255916020019190600101906200056e565b5b5090506200059b91906200059f565b5090565b620005c491905b80821115620005c0576000816000905550600101620005a6565b5090565b90565b6114ce80620005d76000396000f3fe6080604052600436106101355760003560e01c806385be3e62116100ab578063ac9f02221161006f578063ac9f022214610860578063bdaaf9ad1461089d578063c8432af114610965578063ce2ce3fc146109a0578063cf50e60314610a30578063f23fbb6414610a6b57610135565b806385be3e62146106b0578063893d20e8146106db57806391b7f5ed1461073257806396282ba31461076d57806398d5fdca1461083557610135565b8063295795e2116100fd578063295795e2146103aa5780634b4fbe08146104725780634ba424081461049d57806379b007bf1461052d578063827bfbdf146105bd578063850d8b121461068557610135565b806313af403514610137578063145ef6e91461019357806315dae03e146102235780631865c57d146102b35780631ab7254c146102e2575b005b6101796004803603602081101561014d57600080fd5b81019080803573ffffffffffffffffffffffffffffffffffffffff169060200190929190505050610aa6565b604051808215151515815260200191505060405180910390f35b34801561019f57600080fd5b506101a8610c3f565b6040518080602001828103825283818151815260200191508051906020019080838360005b838110156101e85780820151818401526020810190506101cd565b50505050905090810190601f1680156102155780820380516001836020036101000a031916815260200191505b509250505060405180910390f35b34801561022f57600080fd5b50610238610ce1565b6040518080602001828103825283818151815260200191508051906020019080838360005b8381101561027857808201518184015260208101905061025d565b50505050905090810190601f1680156102a55780820380516001836020036101000a031916815260200191505b509250505060405180910390f35b3480156102bf57600080fd5b506102c8610d83565b604051808215151515815260200191505060405180910390f35b3480156102ee57600080fd5b506103a86004803603602081101561030557600080fd5b810190808035906020019064010000000081111561032257600080fd5b82018360208201111561033457600080fd5b8035906020019184600183028401116401000000008311171561035657600080fd5b91908080601f016020809104026020016040519081016040528093929190818152602001838380828437600081840152601f19601f820116905080830192505050505050509192919290505050610d9a565b005b3480156103b657600080fd5b50610470600480360360208110156103cd57600080fd5b81019080803590602001906401000000008111156103ea57600080fd5b8201836020820111156103fc57600080fd5b8035906020019184600183028401116401000000008311171561041e57600080fd5b91908080601f016020809104026020016040519081016040528093929190818152602001838380828437600081840152601f19601f820116905080830192505050505050509192919290505050610e0a565b005b34801561047e57600080fd5b50610487610e7a565b6040518082815260200191505060405180910390f35b3480156104a957600080fd5b506104b2610e84565b6040518080602001828103825283818151815260200191508051906020019080838360005b838110156104f25780820151818401526020810190506104d7565b50505050905090810190601f16801561051f5780820380516001836020036101000a031916815260200191505b509250505060405180910390f35b34801561053957600080fd5b50610542610f26565b6040518080602001828103825283818151815260200191508051906020019080838360005b83811015610582578082015181840152602081019050610567565b50505050905090810190601f1680156105af5780820380516001836020036101000a031916815260200191505b509250505060405180910390f35b3480156105c957600080fd5b50610683600480360360208110156105e057600080fd5b81019080803590602001906401000000008111156105fd57600080fd5b82018360208201111561060f57600080fd5b8035906020019184600183028401116401000000008311171561063157600080fd5b91908080601f016020809104026020016040519081016040528093929190818152602001838380828437600081840152601f19601f820116905080830192505050505050509192919290505050610fc8565b005b34801561069157600080fd5b5061069a611038565b6040518082815260200191505060405180910390f35b3480156106bc57600080fd5b506106c5611042565b6040518082815260200191505060405180910390f35b3480156106e757600080fd5b506106f061104c565b604051808273ffffffffffffffffffffffffffffffffffffffff1673ffffffffffffffffffffffffffffffffffffffff16815260200191505060405180910390f35b34801561073e57600080fd5b5061076b6004803603602081101561075557600080fd5b8101908080359060200190929190505050611075565b005b34801561077957600080fd5b506108336004803603602081101561079057600080fd5b81019080803590602001906401000000008111156107ad57600080fd5b8201836020820111156107bf57600080fd5b803590602001918460018302840111640100000000831117156107e157600080fd5b91908080601f016020809104026020016040519081016040528093929190818152602001838380828437600081840152601f19601f8201169050808301925050505050505091929192905050506110d5565b005b34801561084157600080fd5b5061084a611145565b6040518082815260200191505060405180910390f35b34801561086c57600080fd5b5061089b6004803603602081101561088357600080fd5b8101908080351515906020019092919050505061114f565b005b3480156108a957600080fd5b50610963600480360360208110156108c057600080fd5b81019080803590602001906401000000008111156108dd57600080fd5b8201836020820111156108ef57600080fd5b8035906020019184600183028401116401000000008311171561091157600080fd5b91908080601f016020809104026020016040519081016040528093929190818152602001838380828437600081840152601f19601f8201169050808301925050505050505091929192905050506111c2565b005b34801561097157600080fd5b5061099e6004803603602081101561098857600080fd5b8101908080359060200190929190505050611232565b005b3480156109ac57600080fd5b506109b5611292565b6040518080602001828103825283818151815260200191508051906020019080838360005b838110156109f55780820151818401526020810190506109da565b50505050905090810190601f168015610a225780820380516001836020036101000a031916815260200191505b509250505060405180910390f35b348015610a3c57600080fd5b50610a6960048036036020811015610a5357600080fd5b8101908080359060200190929190505050611334565b005b348015610a7757600080fd5b50610aa460048036036020811015610a8e57600080fd5b8101908080359060200190929190505050611394565b005b6000600a60009054906101000a900460ff16610ac157600080fd5b3373ffffffffffffffffffffffffffffffffffffffff166000809054906101000a900473ffffffffffffffffffffffffffffffffffffffff1673ffffffffffffffffffffffffffffffffffffffff161415610b1b57600080fd5b8173ffffffffffffffffffffffffffffffffffffffff166000809054906101000a900473ffffffffffffffffffffffffffffffffffffffff1673ffffffffffffffffffffffffffffffffffffffff161415610b7557600080fd5b670de0b6b3a764000060095402471015610b8e57600080fd5b6000809054906101000a900473ffffffffffffffffffffffffffffffffffffffff1673ffffffffffffffffffffffffffffffffffffffff166108fc479081150290604051600060405180830381858888f19350505050158015610bf5573d6000803e3d6000fd5b50816000806101000a81548173ffffffffffffffffffffffffffffffffffffffff021916908373ffffffffffffffffffffffffffffffffffffffff16021790555060019050919050565b606060018054600181600116156101000203166002900480601f016020809104026020016040519081016040528092919081815260200182805460018160011615610100020316600290048015610cd75780601f10610cac57610100808354040283529160200191610cd7565b820191906000526020600020905b815481529060010190602001808311610cba57829003601f168201915b5050505050905090565b606060058054600181600116156101000203166002900480601f016020809104026020016040519081016040528092919081815260200182805460018160011615610100020316600290048015610d795780601f10610d4e57610100808354040283529160200191610d79565b820191906000526020600020905b815481529060010190602001808311610d5c57829003601f168201915b5050505050905090565b6000600a60009054906101000a900460ff16905090565b6000809054906101000a900473ffffffffffffffffffffffffffffffffffffffff1673ffffffffffffffffffffffffffffffffffffffff163373ffffffffffffffffffffffffffffffffffffffff161415610e07578060029080519060200190610e059291906113f4565b505b50565b6000809054906101000a900473ffffffffffffffffffffffffffffffffffffffff1673ffffffffffffffffffffffffffffffffffffffff163373ffffffffffffffffffffffffffffffffffffffff161415610e77578060019080519060200190610e759291906113f4565b505b50565b6000600754905090565b606060028054600181600116156101000203166002900480601f016020809104026020016040519081016040528092919081815260200182805460018160011615610100020316600290048015610f1c5780601f10610ef157610100808354040283529160200191610f1c565b820191906000526020600020905b815481529060010190602001808311610eff57829003601f168201915b5050505050905090565b606060038054600181600116156101000203166002900480601f016020809104026020016040519081016040528092919081815260200182805460018160011615610100020316600290048015610fbe5780601f10610f9357610100808354040283529160200191610fbe565b820191906000526020600020905b815481529060010190602001808311610fa157829003601f168201915b5050505050905090565b6000809054906101000a900473ffffffffffffffffffffffffffffffffffffffff1673ffffffffffffffffffffffffffffffffffffffff163373ffffffffffffffffffffffffffffffffffffffff1614156110355780600490805190602001906110339291906113f4565b505b50565b6000600654905090565b6000600854905090565b60008060009054906101000a900473ffffffffffffffffffffffffffffffffffffffff16905090565b6000809054906101000a900473ffffffffffffffffffffffffffffffffffffffff1673ffffffffffffffffffffffffffffffffffffffff163373ffffffffffffffffffffffffffffffffffffffff1614156110d257806009819055505b50565b6000809054906101000a900473ffffffffffffffffffffffffffffffffffffffff1673ffffffffffffffffffffffffffffffffffffffff163373ffffffffffffffffffffffffffffffffffffffff1614156111425780600590805190602001906111409291906113f4565b505b50565b6000600954905090565b6000809054906101000a900473ffffffffffffffffffffffffffffffffffffffff1673ffffffffffffffffffffffffffffffffffffffff163373ffffffffffffffffffffffffffffffffffffffff1614156111bf5780600a60006101000a81548160ff0219169083151502179055505b50565b6000809054906101000a900473ffffffffffffffffffffffffffffffffffffffff1673ffffffffffffffffffffffffffffffffffffffff163373ffffffffffffffffffffffffffffffffffffffff16141561122f57806003908051906020019061122d9291906113f4565b505b50565b6000809054906101000a900473ffffffffffffffffffffffffffffffffffffffff1673ffffffffffffffffffffffffffffffffffffffff163373ffffffffffffffffffffffffffffffffffffffff16141561128f57806006819055505b50565b606060048054600181600116156101000203166002900480601f01602080910402602001604051908101604052809291908181526020018280546001816001161561010002031660029004801561132a5780601f106112ff5761010080835404028352916020019161132a565b820191906000526020600020905b81548152906001019060200180831161130d57829003601f168201915b5050505050905090565b6000809054906101000a900473ffffffffffffffffffffffffffffffffffffffff1673ffffffffffffffffffffffffffffffffffffffff163373ffffffffffffffffffffffffffffffffffffffff16141561139157806008819055505b50565b6000809054906101000a900473ffffffffffffffffffffffffffffffffffffffff1673ffffffffffffffffffffffffffffffffffffffff163373ffffffffffffffffffffffffffffffffffffffff1614156113f157806007819055505b50565b828054600181600116156101000203166002900490600052602060002090601f016020900481019282601f1061143557805160ff1916838001178555611463565b82800160010185558215611463579182015b82811115611462578251825591602001919060010190611447565b5b5090506114709190611474565b5090565b61149691905b8082111561149257600081600090555060010161147a565b5090565b9056fea265627a7a723158203d0dd6de3c500e66ce3b1ad0fc8d408fad9a209b55d1db0fa7b78ccfdfe708b864736f6c63430005100032",
  "source": "pragma solidity ^0.5.0;\n\nimport \"./Authentication.sol\";\n\ncontract House is Authentication {\n\n    string private ownerName;\n    string private ownerEmail;\n    string private ownerPhone;\n    string private houseLocation;\n    string private houseType;\n    uint private bedrooms;\n    uint private bathrooms;\n    uint private area;\n    uint private price;\n    bool private active;\n\n    event TransferSuccess(\n        address payable newOwner,\n        uint price\n    );\n\n    constructor(address payable _ownerAddress, string memory _name, string memory _email,\n        string memory _phone, string memory _location, string memory _houseType,\n        uint _bedrooms, uint _bathrooms, uint _area, uint _price) public payable {\n        ownerAddress = _ownerAddress;\n        ownerName = _name;\n        ownerEmail = _email;\n        ownerPhone = _phone;\n        houseLocation = _location;\n        houseType = _houseType;\n        bedrooms = _bedrooms;\n        bathrooms = _bathrooms;\n        area = _area;\n        price = _price;\n        active = true;\n    }\n\n    function setOwner(address payable _newOwner) public payable returns (bool _success) {\n        // House must be in active status !\n        require(active);\n        // Buyer must not be owner !\n        require(ownerAddress != msg.sender);\n        // New owner must not be old one !\n        require(ownerAddress != _newOwner);\n        require(address(this).balance >= price * 1 ether);\n        address(ownerAddress).transfer(address(this).balance);\n        // Assign new owner !\n        ownerAddress = _newOwner;\n        return true;\n    }\n\n    function getOwnerName() public view returns (string memory _ownerName) {\n        return ownerName;\n    }\n\n    function setOwnerName(string memory _ownerName) public _isOwner() {\n        ownerName = _ownerName;\n    }\n\n    function getOwnerEmail() public view returns (string memory _ownerEmail) {\n        return ownerEmail;\n    }\n\n    function setOwnerEmail(string memory _ownerEmail) public _isOwner() {\n        ownerEmail = _ownerEmail;\n    }\n\n    function getOwnerPhone() public view returns (string memory _ownerPhone) {\n        return ownerPhone;\n    }\n\n    function setOwnerPhone(string memory _ownerPhone) public _isOwner() {\n        ownerPhone = _ownerPhone;\n    }\n\n    function getLocation() public view returns (string memory _houseLocation) {\n        return houseLocation;\n    }\n\n    function setLocation(string memory _houseLocation) public _isOwner() {\n        houseLocation = _houseLocation;\n    }\n\n    function getType() public view returns (string memory _houseType) {\n        return houseType;\n    }\n\n    function setType(string memory _houseType) public _isOwner() {\n        houseType = _houseType;\n    }\n\n    function getBedrooms() public view returns (uint _bedrooms) {\n        return bedrooms;\n    }\n\n    function setBedrooms(uint _bedrooms) public _isOwner() {\n        bedrooms = _bedrooms;\n    }\n\n    function getBathrooms() public view returns (uint _bathrooms) {\n        return bathrooms;\n    }\n\n    function setBathrooms(uint _bathrooms) public _isOwner() {\n        bathrooms = _bathrooms;\n    }\n\n    function getArea() public view returns (uint _area) {\n        return area;\n    }\n\n    function setArea(uint _area) public _isOwner() {\n        area = _area;\n    }\n\n    function getPrice() public view returns (uint _price) {\n        return price;\n    }\n\n    function setPrice(uint _price) public _isOwner() {\n        price = _price;\n    }\n\n    function getState() public view returns (bool _active) {\n        return active;\n    }\n\n    function setState(bool _active) public _isOwner() {\n        active = _active;\n    }\n\n    function() external payable {\n        // Fallback function !\n    }\n\n}\n",
  "sourcePath": "D:\\Work\\Thesis_ThinhHuynh_2019\\Real-Estate-API\\contracts\\House.sol",
  "compiler": {
    "name": "solc",
    "version": "0.5.16+commit.9c3226ce.Emscripten.clang"
  },
  "schemaVersion": "3.0.23",
  "updatedAt": "2020-02-10T08:02:59.623Z",
  "devdoc": {
    "methods": {}
  },
  "userdoc": {
    "methods": {}
  }
}