{
  "contractName": "HouseAdmin",
  "abi": [
    {
      "inputs": [],
      "payable": false,
      "stateMutability": "nonpayable",
      "type": "constructor"
    },
    {
      "anonymous": false,
      "inputs": [
        {
          "indexed": false,
          "internalType": "string",
          "name": "text",
          "type": "string"
        }
      ],
      "name": "Log",
      "type": "event"
    },
    {
      "constant": true,
      "inputs": [],
      "name": "getOwner",
      "outputs": [
        {
          "internalType": "address payable",
          "name": "_currentOwner",
          "type": "address"
        }
      ],
      "payable": false,
      "stateMutability": "view",
      "type": "function"
    },
    {
      "constant": true,
      "inputs": [
        {
          "internalType": "uint256",
          "name": "",
          "type": "uint256"
        }
      ],
      "name": "houses",
      "outputs": [
        {
          "internalType": "contract House",
          "name": "",
          "type": "address"
        }
      ],
      "payable": false,
      "stateMutability": "view",
      "type": "function"
    },
    {
      "constant": false,
      "inputs": [
        {
          "internalType": "address payable",
          "name": "_newOwner",
          "type": "address"
        }
      ],
      "name": "setOwner",
      "outputs": [
        {
          "internalType": "bool",
          "name": "_success",
          "type": "bool"
        }
      ],
      "payable": true,
      "stateMutability": "payable",
      "type": "function"
    },
    {
      "constant": false,
      "inputs": [
        {
          "internalType": "string",
          "name": "_name",
          "type": "string"
        },
        {
          "internalType": "string",
          "name": "_email",
          "type": "string"
        },
        {
          "internalType": "string",
          "name": "_phone",
          "type": "string"
        },
        {
          "internalType": "string",
          "name": "_location",
          "type": "string"
        },
        {
          "internalType": "string",
          "name": "_houseType",
          "type": "string"
        },
        {
          "internalType": "uint256",
          "name": "_bedrooms",
          "type": "uint256"
        },
        {
          "internalType": "uint256",
          "name": "_bathrooms",
          "type": "uint256"
        },
        {
          "internalType": "uint256",
          "name": "_area",
          "type": "uint256"
        },
        {
          "internalType": "uint256",
          "name": "_price",
          "type": "uint256"
        }
      ],
      "name": "sellHouse",
      "outputs": [
        {
          "internalType": "contract House",
          "name": "_houseAddress",
          "type": "address"
        }
      ],
      "payable": false,
      "stateMutability": "nonpayable",
      "type": "function"
    },
    {
      "constant": false,
      "inputs": [
        {
          "internalType": "uint256",
          "name": "_id",
          "type": "uint256"
        }
      ],
      "name": "buyHouse",
      "outputs": [
        {
          "internalType": "bool",
          "name": "_success",
          "type": "bool"
        }
      ],
      "payable": true,
      "stateMutability": "payable",
      "type": "function"
    },
    {
      "constant": true,
      "inputs": [],
      "name": "getAllHouses",
      "outputs": [
        {
          "internalType": "contract House[]",
          "name": "",
          "type": "address[]"
        }
      ],
      "payable": false,
      "stateMutability": "view",
      "type": "function"
    }
  ],
  "bytecode": "0x608060405234801561001057600080fd5b50336000806101000a81548173ffffffffffffffffffffffffffffffffffffffff021916908373ffffffffffffffffffffffffffffffffffffffff16021790555061287f806100606000396000f3fe6080604052600436106200005c5760003560e01c806313af40351462000061578063450c222514620000c0578063893d20e81462000460578063aeda852f14620004ba578063d87deea81462000539578063eddc426914620005aa575b600080fd5b620000a6600480360360208110156200007957600080fd5b81019080803573ffffffffffffffffffffffffffffffffffffffff169060200190929190505050620005f3565b604051808215151515815260200191505060405180910390f35b348015620000cd57600080fd5b506200041e6004803603610120811015620000e757600080fd5b81019080803590602001906401000000008111156200010557600080fd5b8201836020820111156200011857600080fd5b803590602001918460018302840111640100000000831117156200013b57600080fd5b91908080601f016020809104026020016040519081016040528093929190818152602001838380828437600081840152601f19601f820116905080830192505050505050509192919290803590602001906401000000008111156200019f57600080fd5b820183602082011115620001b257600080fd5b80359060200191846001830284011164010000000083111715620001d557600080fd5b91908080601f016020809104026020016040519081016040528093929190818152602001838380828437600081840152601f19601f820116905080830192505050505050509192919290803590602001906401000000008111156200023957600080fd5b8201836020820111156200024c57600080fd5b803590602001918460018302840111640100000000831117156200026f57600080fd5b91908080601f016020809104026020016040519081016040528093929190818152602001838380828437600081840152601f19601f82011690508083019250505050505050919291929080359060200190640100000000811115620002d357600080fd5b820183602082011115620002e657600080fd5b803590602001918460018302840111640100000000831117156200030957600080fd5b91908080601f016020809104026020016040519081016040528093929190818152602001838380828437600081840152601f19601f820116905080830192505050505050509192919290803590602001906401000000008111156200036d57600080fd5b8201836020820111156200038057600080fd5b80359060200191846001830284011164010000000083111715620003a357600080fd5b91908080601f016020809104026020016040519081016040528093929190818152602001838380828437600081840152601f19601f820116905080830192505050505050509192919290803590602001909291908035906020019092919080359060200190929190803590602001909291905050506200063e565b604051808273ffffffffffffffffffffffffffffffffffffffff1673ffffffffffffffffffffffffffffffffffffffff16815260200191505060405180910390f35b3480156200046d57600080fd5b50620004786200096d565b604051808273ffffffffffffffffffffffffffffffffffffffff1673ffffffffffffffffffffffffffffffffffffffff16815260200191505060405180910390f35b348015620004c757600080fd5b50620004f760048036036020811015620004e057600080fd5b810190808035906020019092919050505062000996565b604051808273ffffffffffffffffffffffffffffffffffffffff1673ffffffffffffffffffffffffffffffffffffffff16815260200191505060405180910390f35b3480156200054657600080fd5b5062000551620009d3565b6040518080602001828103825283818151815260200191508051906020019060200280838360005b838110156200059657808201518184015260208101905062000579565b505050509050019250505060405180910390f35b620005d960048036036020811015620005c257600080fd5b810190808035906020019092919050505062000a63565b604051808215151515815260200191505060405180910390f35b6000816000806101000a81548173ffffffffffffffffffffffffffffffffffffffff021916908373ffffffffffffffffffffffffffffffffffffffff16021790555060019050919050565b600080338b8b8b8b8b8b8b8b8b604051620006599062000d97565b808b73ffffffffffffffffffffffffffffffffffffffff1673ffffffffffffffffffffffffffffffffffffffff16815260200180602001806020018060200180602001806020018a815260200189815260200188815260200187815260200186810386528f818151815260200191508051906020019080838360005b83811015620006f2578082015181840152602081019050620006d5565b50505050905090810190601f168015620007205780820380516001836020036101000a031916815260200191505b5086810385528e818151815260200191508051906020019080838360005b838110156200075b5780820151818401526020810190506200073e565b50505050905090810190601f168015620007895780820380516001836020036101000a031916815260200191505b5086810384528d818151815260200191508051906020019080838360005b83811015620007c4578082015181840152602081019050620007a7565b50505050905090810190601f168015620007f25780820380516001836020036101000a031916815260200191505b5086810383528c818151815260200191508051906020019080838360005b838110156200082d57808201518184015260208101905062000810565b50505050905090810190601f1680156200085b5780820380516001836020036101000a031916815260200191505b5086810382528b818151815260200191508051906020019080838360005b838110156200089657808201518184015260208101905062000879565b50505050905090810190601f168015620008c45780820380516001836020036101000a031916815260200191505b509f50505050505050505050505050505050604051809103906000f080158015620008f3573d6000803e3d6000fd5b50905060018190806001815401808255809150509060018203906000526020600020016000909192909190916101000a81548173ffffffffffffffffffffffffffffffffffffffff021916908373ffffffffffffffffffffffffffffffffffffffff16021790555050809150509998505050505050505050565b60008060009054906101000a900473ffffffffffffffffffffffffffffffffffffffff16905090565b60018181548110620009a457fe5b906000526020600020016000915054906101000a900473ffffffffffffffffffffffffffffffffffffffff1681565b6060600180548060200260200160405190810160405280929190818152602001828054801562000a5957602002820191906000526020600020905b8160009054906101000a900473ffffffffffffffffffffffffffffffffffffffff1673ffffffffffffffffffffffffffffffffffffffff168152602001906001019080831162000a0e575b5050505050905090565b6000806001838154811062000a7457fe5b9060005260206000200160009054906101000a900473ffffffffffffffffffffffffffffffffffffffff169050670de0b6b3a76400008173ffffffffffffffffffffffffffffffffffffffff166398d5fdca6040518163ffffffff1660e01b815260040160206040518083038186803b15801562000af157600080fd5b505afa15801562000b06573d6000803e3d6000fd5b505050506040513d602081101562000b1d57600080fd5b81019080805190602001909291905050500234101562000b3c57600080fd5b3373ffffffffffffffffffffffffffffffffffffffff168173ffffffffffffffffffffffffffffffffffffffff1663893d20e86040518163ffffffff1660e01b815260040160206040518083038186803b15801562000b9a57600080fd5b505afa15801562000baf573d6000803e3d6000fd5b505050506040513d602081101562000bc657600080fd5b810190808051906020019092919050505073ffffffffffffffffffffffffffffffffffffffff16141562000bf957600080fd5b8073ffffffffffffffffffffffffffffffffffffffff166313af4035670de0b6b3a76400008373ffffffffffffffffffffffffffffffffffffffff166398d5fdca6040518163ffffffff1660e01b815260040160206040518083038186803b15801562000c6557600080fd5b505afa15801562000c7a573d6000803e3d6000fd5b505050506040513d602081101562000c9157600080fd5b810190808051906020019092919050505002336040518363ffffffff1660e01b8152600401808273ffffffffffffffffffffffffffffffffffffffff1673ffffffffffffffffffffffffffffffffffffffff1681526020019150506020604051808303818588803b15801562000d0657600080fd5b505af115801562000d1b573d6000803e3d6000fd5b50505050506040513d602081101562000d3357600080fd5b8101908080519060200190929190505050503373ffffffffffffffffffffffffffffffffffffffff166108fc479081150290604051600060405180830381858888f1935050505015801562000d8c573d6000803e3d6000fd5b506001915050919050565b611aa58062000da68339019056fe608060405260405162001aa538038062001aa583398181016040526101408110156200002a57600080fd5b8101908080519060200190929190805160405193929190846401000000008211156200005557600080fd5b838201915060208201858111156200006c57600080fd5b82518660018202830111640100000000821117156200008a57600080fd5b8083526020830192505050908051906020019080838360005b83811015620000c0578082015181840152602081019050620000a3565b50505050905090810190601f168015620000ee5780820380516001836020036101000a031916815260200191505b50604052602001805160405193929190846401000000008211156200011257600080fd5b838201915060208201858111156200012957600080fd5b82518660018202830111640100000000821117156200014757600080fd5b8083526020830192505050908051906020019080838360005b838110156200017d57808201518184015260208101905062000160565b50505050905090810190601f168015620001ab5780820380516001836020036101000a031916815260200191505b5060405260200180516040519392919084640100000000821115620001cf57600080fd5b83820191506020820185811115620001e657600080fd5b82518660018202830111640100000000821117156200020457600080fd5b8083526020830192505050908051906020019080838360005b838110156200023a5780820151818401526020810190506200021d565b50505050905090810190601f168015620002685780820380516001836020036101000a031916815260200191505b50604052602001805160405193929190846401000000008211156200028c57600080fd5b83820191506020820185811115620002a357600080fd5b8251866001820283011164010000000082111715620002c157600080fd5b8083526020830192505050908051906020019080838360005b83811015620002f7578082015181840152602081019050620002da565b50505050905090810190601f168015620003255780820380516001836020036101000a031916815260200191505b50604052602001805160405193929190846401000000008211156200034957600080fd5b838201915060208201858111156200036057600080fd5b82518660018202830111640100000000821117156200037e57600080fd5b8083526020830192505050908051906020019080838360005b83811015620003b457808201518184015260208101905062000397565b50505050905090810190601f168015620003e25780820380516001836020036101000a031916815260200191505b5060405260200180519060200190929190805190602001909291908051906020019092919080519060200190929190505050896000806101000a81548173ffffffffffffffffffffffffffffffffffffffff021916908373ffffffffffffffffffffffffffffffffffffffff16021790555088600190805190602001906200046c92919062000518565b5087600290805190602001906200048592919062000518565b5086600390805190602001906200049e92919062000518565b508560049080519060200190620004b792919062000518565b508460059080519060200190620004d092919062000518565b50836006819055508260078190555081600881905550806009819055506001600a60006101000a81548160ff02191690831515021790555050505050505050505050620005c7565b828054600181600116156101000203166002900490600052602060002090601f016020900481019282601f106200055b57805160ff19168380011785556200058c565b828001600101855582156200058c579182015b828111156200058b5782518255916020019190600101906200056e565b5b5090506200059b91906200059f565b5090565b620005c491905b80821115620005c0576000816000905550600101620005a6565b5090565b90565b6114ce80620005d76000396000f3fe6080604052600436106101355760003560e01c806385be3e62116100ab578063ac9f02221161006f578063ac9f022214610860578063bdaaf9ad1461089d578063c8432af114610965578063ce2ce3fc146109a0578063cf50e60314610a30578063f23fbb6414610a6b57610135565b806385be3e62146106b0578063893d20e8146106db57806391b7f5ed1461073257806396282ba31461076d57806398d5fdca1461083557610135565b8063295795e2116100fd578063295795e2146103aa5780634b4fbe08146104725780634ba424081461049d57806379b007bf1461052d578063827bfbdf146105bd578063850d8b121461068557610135565b806313af403514610137578063145ef6e91461019357806315dae03e146102235780631865c57d146102b35780631ab7254c146102e2575b005b6101796004803603602081101561014d57600080fd5b81019080803573ffffffffffffffffffffffffffffffffffffffff169060200190929190505050610aa6565b604051808215151515815260200191505060405180910390f35b34801561019f57600080fd5b506101a8610c3f565b6040518080602001828103825283818151815260200191508051906020019080838360005b838110156101e85780820151818401526020810190506101cd565b50505050905090810190601f1680156102155780820380516001836020036101000a031916815260200191505b509250505060405180910390f35b34801561022f57600080fd5b50610238610ce1565b6040518080602001828103825283818151815260200191508051906020019080838360005b8381101561027857808201518184015260208101905061025d565b50505050905090810190601f1680156102a55780820380516001836020036101000a031916815260200191505b509250505060405180910390f35b3480156102bf57600080fd5b506102c8610d83565b604051808215151515815260200191505060405180910390f35b3480156102ee57600080fd5b506103a86004803603602081101561030557600080fd5b810190808035906020019064010000000081111561032257600080fd5b82018360208201111561033457600080fd5b8035906020019184600183028401116401000000008311171561035657600080fd5b91908080601f016020809104026020016040519081016040528093929190818152602001838380828437600081840152601f19601f820116905080830192505050505050509192919290505050610d9a565b005b3480156103b657600080fd5b50610470600480360360208110156103cd57600080fd5b81019080803590602001906401000000008111156103ea57600080fd5b8201836020820111156103fc57600080fd5b8035906020019184600183028401116401000000008311171561041e57600080fd5b91908080601f016020809104026020016040519081016040528093929190818152602001838380828437600081840152601f19601f820116905080830192505050505050509192919290505050610e0a565b005b34801561047e57600080fd5b50610487610e7a565b6040518082815260200191505060405180910390f35b3480156104a957600080fd5b506104b2610e84565b6040518080602001828103825283818151815260200191508051906020019080838360005b838110156104f25780820151818401526020810190506104d7565b50505050905090810190601f16801561051f5780820380516001836020036101000a031916815260200191505b509250505060405180910390f35b34801561053957600080fd5b50610542610f26565b6040518080602001828103825283818151815260200191508051906020019080838360005b83811015610582578082015181840152602081019050610567565b50505050905090810190601f1680156105af5780820380516001836020036101000a031916815260200191505b509250505060405180910390f35b3480156105c957600080fd5b50610683600480360360208110156105e057600080fd5b81019080803590602001906401000000008111156105fd57600080fd5b82018360208201111561060f57600080fd5b8035906020019184600183028401116401000000008311171561063157600080fd5b91908080601f016020809104026020016040519081016040528093929190818152602001838380828437600081840152601f19601f820116905080830192505050505050509192919290505050610fc8565b005b34801561069157600080fd5b5061069a611038565b6040518082815260200191505060405180910390f35b3480156106bc57600080fd5b506106c5611042565b6040518082815260200191505060405180910390f35b3480156106e757600080fd5b506106f061104c565b604051808273ffffffffffffffffffffffffffffffffffffffff1673ffffffffffffffffffffffffffffffffffffffff16815260200191505060405180910390f35b34801561073e57600080fd5b5061076b6004803603602081101561075557600080fd5b8101908080359060200190929190505050611075565b005b34801561077957600080fd5b506108336004803603602081101561079057600080fd5b81019080803590602001906401000000008111156107ad57600080fd5b8201836020820111156107bf57600080fd5b803590602001918460018302840111640100000000831117156107e157600080fd5b91908080601f016020809104026020016040519081016040528093929190818152602001838380828437600081840152601f19601f8201169050808301925050505050505091929192905050506110d5565b005b34801561084157600080fd5b5061084a611145565b6040518082815260200191505060405180910390f35b34801561086c57600080fd5b5061089b6004803603602081101561088357600080fd5b8101908080351515906020019092919050505061114f565b005b3480156108a957600080fd5b50610963600480360360208110156108c057600080fd5b81019080803590602001906401000000008111156108dd57600080fd5b8201836020820111156108ef57600080fd5b8035906020019184600183028401116401000000008311171561091157600080fd5b91908080601f016020809104026020016040519081016040528093929190818152602001838380828437600081840152601f19601f8201169050808301925050505050505091929192905050506111c2565b005b34801561097157600080fd5b5061099e6004803603602081101561098857600080fd5b8101908080359060200190929190505050611232565b005b3480156109ac57600080fd5b506109b5611292565b6040518080602001828103825283818151815260200191508051906020019080838360005b838110156109f55780820151818401526020810190506109da565b50505050905090810190601f168015610a225780820380516001836020036101000a031916815260200191505b509250505060405180910390f35b348015610a3c57600080fd5b50610a6960048036036020811015610a5357600080fd5b8101908080359060200190929190505050611334565b005b348015610a7757600080fd5b50610aa460048036036020811015610a8e57600080fd5b8101908080359060200190929190505050611394565b005b6000600a60009054906101000a900460ff16610ac157600080fd5b3373ffffffffffffffffffffffffffffffffffffffff166000809054906101000a900473ffffffffffffffffffffffffffffffffffffffff1673ffffffffffffffffffffffffffffffffffffffff161415610b1b57600080fd5b8173ffffffffffffffffffffffffffffffffffffffff166000809054906101000a900473ffffffffffffffffffffffffffffffffffffffff1673ffffffffffffffffffffffffffffffffffffffff161415610b7557600080fd5b670de0b6b3a764000060095402471015610b8e57600080fd5b6000809054906101000a900473ffffffffffffffffffffffffffffffffffffffff1673ffffffffffffffffffffffffffffffffffffffff166108fc479081150290604051600060405180830381858888f19350505050158015610bf5573d6000803e3d6000fd5b50816000806101000a81548173ffffffffffffffffffffffffffffffffffffffff021916908373ffffffffffffffffffffffffffffffffffffffff16021790555060019050919050565b606060018054600181600116156101000203166002900480601f016020809104026020016040519081016040528092919081815260200182805460018160011615610100020316600290048015610cd75780601f10610cac57610100808354040283529160200191610cd7565b820191906000526020600020905b815481529060010190602001808311610cba57829003601f168201915b5050505050905090565b606060058054600181600116156101000203166002900480601f016020809104026020016040519081016040528092919081815260200182805460018160011615610100020316600290048015610d795780601f10610d4e57610100808354040283529160200191610d79565b820191906000526020600020905b815481529060010190602001808311610d5c57829003601f168201915b5050505050905090565b6000600a60009054906101000a900460ff16905090565b6000809054906101000a900473ffffffffffffffffffffffffffffffffffffffff1673ffffffffffffffffffffffffffffffffffffffff163373ffffffffffffffffffffffffffffffffffffffff161415610e07578060029080519060200190610e059291906113f4565b505b50565b6000809054906101000a900473ffffffffffffffffffffffffffffffffffffffff1673ffffffffffffffffffffffffffffffffffffffff163373ffffffffffffffffffffffffffffffffffffffff161415610e77578060019080519060200190610e759291906113f4565b505b50565b6000600754905090565b606060028054600181600116156101000203166002900480601f016020809104026020016040519081016040528092919081815260200182805460018160011615610100020316600290048015610f1c5780601f10610ef157610100808354040283529160200191610f1c565b820191906000526020600020905b815481529060010190602001808311610eff57829003601f168201915b5050505050905090565b606060038054600181600116156101000203166002900480601f016020809104026020016040519081016040528092919081815260200182805460018160011615610100020316600290048015610fbe5780601f10610f9357610100808354040283529160200191610fbe565b820191906000526020600020905b815481529060010190602001808311610fa157829003601f168201915b5050505050905090565b6000809054906101000a900473ffffffffffffffffffffffffffffffffffffffff1673ffffffffffffffffffffffffffffffffffffffff163373ffffffffffffffffffffffffffffffffffffffff1614156110355780600490805190602001906110339291906113f4565b505b50565b6000600654905090565b6000600854905090565b60008060009054906101000a900473ffffffffffffffffffffffffffffffffffffffff16905090565b6000809054906101000a900473ffffffffffffffffffffffffffffffffffffffff1673ffffffffffffffffffffffffffffffffffffffff163373ffffffffffffffffffffffffffffffffffffffff1614156110d257806009819055505b50565b6000809054906101000a900473ffffffffffffffffffffffffffffffffffffffff1673ffffffffffffffffffffffffffffffffffffffff163373ffffffffffffffffffffffffffffffffffffffff1614156111425780600590805190602001906111409291906113f4565b505b50565b6000600954905090565b6000809054906101000a900473ffffffffffffffffffffffffffffffffffffffff1673ffffffffffffffffffffffffffffffffffffffff163373ffffffffffffffffffffffffffffffffffffffff1614156111bf5780600a60006101000a81548160ff0219169083151502179055505b50565b6000809054906101000a900473ffffffffffffffffffffffffffffffffffffffff1673ffffffffffffffffffffffffffffffffffffffff163373ffffffffffffffffffffffffffffffffffffffff16141561122f57806003908051906020019061122d9291906113f4565b505b50565b6000809054906101000a900473ffffffffffffffffffffffffffffffffffffffff1673ffffffffffffffffffffffffffffffffffffffff163373ffffffffffffffffffffffffffffffffffffffff16141561128f57806006819055505b50565b606060048054600181600116156101000203166002900480601f01602080910402602001604051908101604052809291908181526020018280546001816001161561010002031660029004801561132a5780601f106112ff5761010080835404028352916020019161132a565b820191906000526020600020905b81548152906001019060200180831161130d57829003601f168201915b5050505050905090565b6000809054906101000a900473ffffffffffffffffffffffffffffffffffffffff1673ffffffffffffffffffffffffffffffffffffffff163373ffffffffffffffffffffffffffffffffffffffff16141561139157806008819055505b50565b6000809054906101000a900473ffffffffffffffffffffffffffffffffffffffff1673ffffffffffffffffffffffffffffffffffffffff163373ffffffffffffffffffffffffffffffffffffffff1614156113f157806007819055505b50565b828054600181600116156101000203166002900490600052602060002090601f016020900481019282601f1061143557805160ff1916838001178555611463565b82800160010185558215611463579182015b82811115611462578251825591602001919060010190611447565b5b5090506114709190611474565b5090565b61149691905b8082111561149257600081600090555060010161147a565b5090565b9056fea265627a7a723158203d0dd6de3c500e66ce3b1ad0fc8d408fad9a209b55d1db0fa7b78ccfdfe708b864736f6c63430005100032a265627a7a72315820a0629ea7ab276ce8a52e0fbbc8f3e6f1038d18eb51bb2b886f5e77957c4fd10964736f6c63430005100032",
  "source": "pragma solidity ^0.5.0;\n\nimport \"./Authentication.sol\";\nimport \"./House.sol\";\n\ncontract HouseAdmin is Authentication {\n\n    House[] public houses;\n\n    constructor() public {\n        ownerAddress = msg.sender;\n    }\n\n    event Log(string text);\n\n    function sellHouse(string memory _name, string memory _email,\n        string memory _phone, string memory _location, string memory _houseType,\n        uint _bedrooms, uint _bathrooms, uint _area, uint _price) public returns (House _houseAddress) {\n        // Create new house instance as passing arguments to its constructor !\n        House house = new House(msg.sender, _name, _email, _phone,\n            _location, _houseType, _bedrooms, _bathrooms, _area, _price);\n        houses.push(house);\n        return house;\n    }\n\n    function buyHouse(uint _id) public payable returns (bool _success) {\n        // Get house instance as passing arguments to <houses> array !\n        House house = houses[_id];\n        // Make sure having enough money !\n        require(msg.value >= house.getPrice() * 1 ether);\n        // Buyer must not be owner !\n        require(house.getOwner() != msg.sender);\n        // Set the new owner and passing ether to that house contract !\n        house.setOwner.value(house.getPrice() * 1 ether)(msg.sender);\n        // Leftover money go back to your wallet !\n        address(msg.sender).transfer(address(this).balance);\n        return true;\n    }\n\n    function getAllHouses() public view returns (House[] memory) {\n        return houses;\n    }\n\n}\n",
  "sourcePath": "D:\\Work\\Thesis_ThinhHuynh_2019\\Real-Estate-API\\contracts\\HouseAdmin.sol",
  "compiler": {
    "name": "solc",
    "version": "0.5.16+commit.9c3226ce.Emscripten.clang"
  },
  "schemaVersion": "3.0.23",
  "updatedAt": "2020-02-10T08:06:45.930Z",
  "networkType": "ethereum",
  "devdoc": {
    "methods": {}
  },
  "userdoc": {
    "methods": {}
  }
}