{
  "contractName": "House",
  "abi": [
    {
      "inputs": [
        {
          "internalType": "address payable",
          "name": "_owner",
          "type": "address"
        },
        {
          "internalType": "string",
          "name": "_location",
          "type": "string"
        },
        {
          "internalType": "uint256",
          "name": "_price",
          "type": "uint256"
        },
        {
          "internalType": "uint256",
          "name": "_area",
          "type": "uint256"
        }
      ],
      "payable": true,
      "stateMutability": "payable",
      "type": "constructor"
    },
    {
      "anonymous": false,
      "inputs": [
        {
          "indexed": false,
          "internalType": "address",
          "name": "renter",
          "type": "address"
        }
      ],
      "name": "ExtendSuccess",
      "type": "event"
    },
    {
      "anonymous": false,
      "inputs": [
        {
          "indexed": false,
          "internalType": "address",
          "name": "installmentBuyer",
          "type": "address"
        }
      ],
      "name": "InitializeInstallmentSuccess",
      "type": "event"
    },
    {
      "anonymous": false,
      "inputs": [
        {
          "indexed": false,
          "internalType": "address",
          "name": "renter",
          "type": "address"
        }
      ],
      "name": "RentSuccess",
      "type": "event"
    },
    {
      "anonymous": false,
      "inputs": [],
      "name": "TransactionSuccess",
      "type": "event"
    },
    {
      "anonymous": false,
      "inputs": [
        {
          "indexed": false,
          "internalType": "address payable",
          "name": "newOwner",
          "type": "address"
        }
      ],
      "name": "TransferOwnerSuccess",
      "type": "event"
    },
    {
      "payable": true,
      "stateMutability": "payable",
      "type": "fallback"
    },
    {
      "constant": false,
      "inputs": [],
      "name": "buy",
      "outputs": [],
      "payable": true,
      "stateMutability": "payable",
      "type": "function"
    },
    {
      "constant": false,
      "inputs": [],
      "name": "chargeInstallmentContract",
      "outputs": [],
      "payable": true,
      "stateMutability": "payable",
      "type": "function"
    },
    {
      "constant": false,
      "inputs": [],
      "name": "chargeRentalContract",
      "outputs": [],
      "payable": true,
      "stateMutability": "payable",
      "type": "function"
    },
    {
      "constant": true,
      "inputs": [],
      "name": "getBuyDetail",
      "outputs": [
        {
          "internalType": "uint256",
          "name": "_price",
          "type": "uint256"
        },
        {
          "internalType": "bool",
          "name": "_canBuyImmediately",
          "type": "bool"
        }
      ],
      "payable": false,
      "stateMutability": "view",
      "type": "function"
    },
    {
      "constant": true,
      "inputs": [],
      "name": "getHouseDetail",
      "outputs": [
        {
          "internalType": "address payable",
          "name": "_owner",
          "type": "address"
        },
        {
          "internalType": "string",
          "name": "_location",
          "type": "string"
        },
        {
          "internalType": "uint256",
          "name": "_area",
          "type": "uint256"
        },
        {
          "internalType": "bool",
          "name": "_active",
          "type": "bool"
        }
      ],
      "payable": false,
      "stateMutability": "view",
      "type": "function"
    },
    {
      "constant": true,
      "inputs": [],
      "name": "getInstallmentDetail",
      "outputs": [
        {
          "internalType": "uint256",
          "name": "_installmentDueDate",
          "type": "uint256"
        },
        {
          "internalType": "uint256",
          "name": "_installmentPaymentDate",
          "type": "uint256"
        },
        {
          "internalType": "uint256",
          "name": "_installmentPaymentCharge",
          "type": "uint256"
        },
        {
          "internalType": "uint256",
          "name": "_installmentPaymentStep",
          "type": "uint256"
        },
        {
          "internalType": "uint256",
          "name": "_installmentDuration",
          "type": "uint256"
        },
        {
          "internalType": "uint256",
          "name": "_interestRate",
          "type": "uint256"
        },
        {
          "internalType": "uint256",
          "name": "_repayRate",
          "type": "uint256"
        },
        {
          "internalType": "address payable",
          "name": "_installmentBuyer",
          "type": "address"
        },
        {
          "internalType": "bool",
          "name": "_inInstallmentProcess",
          "type": "bool"
        },
        {
          "internalType": "bool",
          "name": "_canInstallmentPaid",
          "type": "bool"
        }
      ],
      "payable": false,
      "stateMutability": "view",
      "type": "function"
    },
    {
      "constant": true,
      "inputs": [],
      "name": "getOwner",
      "outputs": [
        {
          "internalType": "address payable",
          "name": "_currentOwner",
          "type": "address"
        }
      ],
      "payable": false,
      "stateMutability": "view",
      "type": "function"
    },
    {
      "constant": true,
      "inputs": [],
      "name": "getRentalDetail",
      "outputs": [
        {
          "internalType": "uint256",
          "name": "_rentalDueDate",
          "type": "uint256"
        },
        {
          "internalType": "uint256",
          "name": "_rentalPaymentDate",
          "type": "uint256"
        },
        {
          "internalType": "uint256",
          "name": "_rentalPaymentCharge",
          "type": "uint256"
        },
        {
          "internalType": "uint256",
          "name": "_rentalPaymentStep",
          "type": "uint256"
        },
        {
          "internalType": "uint256",
          "name": "_rentalDuration",
          "type": "uint256"
        },
        {
          "internalType": "address",
          "name": "_renter",
          "type": "address"
        },
        {
          "internalType": "bool",
          "name": "_rented",
          "type": "bool"
        },
        {
          "internalType": "bool",
          "name": "_canRent",
          "type": "bool"
        }
      ],
      "payable": false,
      "stateMutability": "view",
      "type": "function"
    },
    {
      "constant": false,
      "inputs": [],
      "name": "installmentPayment",
      "outputs": [],
      "payable": true,
      "stateMutability": "payable",
      "type": "function"
    },
    {
      "constant": false,
      "inputs": [],
      "name": "rent",
      "outputs": [],
      "payable": true,
      "stateMutability": "payable",
      "type": "function"
    },
    {
      "constant": false,
      "inputs": [],
      "name": "resetInstallmentContract",
      "outputs": [],
      "payable": false,
      "stateMutability": "nonpayable",
      "type": "function"
    },
    {
      "constant": false,
      "inputs": [],
      "name": "resetRentalContract",
      "outputs": [],
      "payable": false,
      "stateMutability": "nonpayable",
      "type": "function"
    },
    {
      "constant": false,
      "inputs": [
        {
          "internalType": "uint256",
          "name": "_price",
          "type": "uint256"
        },
        {
          "internalType": "bool",
          "name": "_canBuyImmediately",
          "type": "bool"
        }
      ],
      "name": "setBuyPayment",
      "outputs": [],
      "payable": false,
      "stateMutability": "nonpayable",
      "type": "function"
    },
    {
      "constant": false,
      "inputs": [
        {
          "internalType": "string",
          "name": "_location",
          "type": "string"
        },
        {
          "internalType": "uint256",
          "name": "_area",
          "type": "uint256"
        },
        {
          "internalType": "bool",
          "name": "_active",
          "type": "bool"
        }
      ],
      "name": "setHouseDetail",
      "outputs": [],
      "payable": false,
      "stateMutability": "nonpayable",
      "type": "function"
    },
    {
      "constant": false,
      "inputs": [
        {
          "internalType": "bool",
          "name": "_canInstallmentPaid",
          "type": "bool"
        }
      ],
      "name": "setInstallable",
      "outputs": [],
      "payable": false,
      "stateMutability": "nonpayable",
      "type": "function"
    },
    {
      "constant": false,
      "inputs": [
        {
          "internalType": "uint256",
          "name": "_repayRate",
          "type": "uint256"
        },
        {
          "internalType": "uint256",
          "name": "_interestRate",
          "type": "uint256"
        },
        {
          "internalType": "uint256",
          "name": "_installmentPaymentStep",
          "type": "uint256"
        },
        {
          "internalType": "uint256",
          "name": "_installmentDuration",
          "type": "uint256"
        },
        {
          "internalType": "bool",
          "name": "_canInstallmentPaid",
          "type": "bool"
        },
        {
          "internalType": "address",
          "name": "_acceptAddress",
          "type": "address"
        }
      ],
      "name": "setInstallmentPayment",
      "outputs": [],
      "payable": false,
      "stateMutability": "nonpayable",
      "type": "function"
    },
    {
      "constant": false,
      "inputs": [
        {
          "internalType": "address payable",
          "name": "_newOwner",
          "type": "address"
        }
      ],
      "name": "setOwner",
      "outputs": [],
      "payable": true,
      "stateMutability": "payable",
      "type": "function"
    },
    {
      "constant": false,
      "inputs": [
        {
          "internalType": "bool",
          "name": "_allowRent",
          "type": "bool"
        }
      ],
      "name": "setRentable",
      "outputs": [],
      "payable": false,
      "stateMutability": "nonpayable",
      "type": "function"
    },
    {
      "constant": false,
      "inputs": [
        {
          "internalType": "uint256",
          "name": "_rentalPaymentCharge",
          "type": "uint256"
        },
        {
          "internalType": "uint256",
          "name": "_rentalPaymentStep",
          "type": "uint256"
        },
        {
          "internalType": "uint256",
          "name": "_rentalDuration",
          "type": "uint256"
        },
        {
          "internalType": "bool",
          "name": "_allowRent",
          "type": "bool"
        }
      ],
      "name": "setRentalPayment",
      "outputs": [],
      "payable": false,
      "stateMutability": "nonpayable",
      "type": "function"
    },
    {
      "constant": false,
      "inputs": [
        {
          "internalType": "bool",
          "name": "_active",
          "type": "bool"
        }
      ],
      "name": "setState",
      "outputs": [],
      "payable": false,
      "stateMutability": "nonpayable",
      "type": "function"
    },
    {
      "constant": true,
      "inputs": [],
      "name": "getBalance",
      "outputs": [
        {
          "internalType": "uint256",
          "name": "",
          "type": "uint256"
        }
      ],
      "payable": false,
      "stateMutability": "view",
      "type": "function"
    }
  ],
  "bytecode": "0x608060405260405162001f1e38038062001f1e833981810160405260808110156200002957600080fd5b8151602083018051604051929492938301929190846401000000008211156200005157600080fd5b9083019060208201858111156200006757600080fd5b82516401000000008111828201881017156200008257600080fd5b82525081516020918201929091019080838360005b83811015620000b157818101518382015260200162000097565b50505050905090810190601f168015620000df5780820380516001836020036101000a031916815260200191505b506040908152602082810151929091015160008054600160a060020a031916600160a060020a038916179055855192945092506200012391600191860190620001c9565b5060025560038054600160ff199182168117909255600a928355600b8054909116909117905560098054750100000000000000000000000000000000000000000060a060020a61ffff02199182168117909255426004819055670de0b6b3a7640000600681905562278d0060078190556276a700600881905560148054909516909517909355600c91909155600e55600f556010556011819055601255506200026e9050565b828054600181600116156101000203166002900490600052602060002090601f016020900481019282601f106200020c57805160ff19168380011785556200023c565b828001600101855582156200023c579182015b828111156200023c5782518255916020019190600101906200021f565b506200024a9291506200024e565b5090565b6200026b91905b808211156200024a576000815560010162000255565b90565b611ca0806200027e6000396000f3fe608060405260043610610147576000357c01000000000000000000000000000000000000000000000000000000009004806382996d9f116100c8578063ac9f02221161008c578063ac9f022214610462578063b29b53661461048e578063b9152607146104ba578063f4ed9c781461050d578063f7497ec3146105b9578063fe73030c146105c157610147565b806382996d9f146103c3578063893d20e8146103cb5780638c33a640146103fc57806390e1b44414610428578063a6f2ae3a1461045a57610147565b80635ff3fb7d1161010f5780635ff3fb7d146102d757806362209715146102ec57806369a3c7e51461031a5780636d28ad57146103225780636eb956de1461038557610147565b80630f9a5e081461014957806312065fe01461020357806313af40351461022a5780632dcfdd04146102505780634b9a138514610265575b005b34801561015557600080fd5b506101476004803603606081101561016c57600080fd5b81019060208101813564010000000081111561018757600080fd5b82018360208201111561019957600080fd5b803590602001918460018302840111640100000000831117156101bb57600080fd5b91908080601f016020809104026020016040519081016040528093929190818152602001838380828437600092019190915250929550508235935050506020013515156105c9565b34801561020f57600080fd5b506102186106cd565b60408051918252519081900360200190f35b6101476004803603602081101561024057600080fd5b5035600160a060020a03166106d3565b34801561025c57600080fd5b50610147610745565b34801561027157600080fd5b5061027a610824565b604080519a8b5260208b0199909952898901979097526060890195909552608088019390935260a087019190915260c0860152600160a060020a031660e08501521515610100840152151561012083015251908190036101400190f35b3480156102e357600080fd5b5061014761086b565b3480156102f857600080fd5b506103016109ac565b6040805192835290151560208301528051918290030190f35b6101476109b9565b34801561032e57600080fd5b50610337610b42565b6040805198895260208901979097528787019590955260608701939093526080860191909152600160a060020a031660a0850152151560c0840152151560e083015251908190036101000190f35b34801561039157600080fd5b50610147600480360360808110156103a857600080fd5b50803590602081013590604081013590606001351515610b7d565b610147610d7d565b3480156103d757600080fd5b506103e0610efc565b60408051600160a060020a039092168252519081900360200190f35b34801561040857600080fd5b506101476004803603602081101561041f57600080fd5b50351515610f0b565b34801561043457600080fd5b506101476004803603604081101561044b57600080fd5b50803590602001351515610f66565b610147610fac565b34801561046e57600080fd5b506101476004803603602081101561048557600080fd5b50351515611089565b34801561049a57600080fd5b50610147600480360360208110156104b157600080fd5b503515156110c9565b3480156104c657600080fd5b50610147600480360360c08110156104dd57600080fd5b50803590602081013590604081013590606081013590608081013515159060a00135600160a060020a0316611124565b34801561051957600080fd5b50610522611397565b60408051600160a060020a0386168152908101839052811515606082015260806020808301828152865192840192909252855160a084019187019080838360005b8381101561057b578181015183820152602001610563565b50505050905090810190601f1680156105a85780820380516001836020036101000a031916815260200191505b509550505050505060405180910390f35b610147611457565b61014761160d565b600054600190600160a060020a03163314156106225783516105f29060019060208701906118c6565b5060028390556003805460ff1916831515179055604051600080516020611b0f83398151915290600090a1610672565b6040805160e560020a62461bcd02815260206004820152601360248201527f594f5520415245204e4f54204f574e4552202100000000000000000000000000604482015290519081900360640190fd5b6106c7565b6040805160e560020a62461bcd02815260206004820152601760248201527f594f5520415245204f574e455220414c52454144592021000000000000000000604482015290519081900360640190fd5b50505050565b30315b90565b600054600190600160a060020a03163314156106225760008054600160a060020a031916600160a060020a03848116919091179182905560408051929091168252517f0e240929895e4b92a221f9afc5a368e8c21bbb8d724511edd6e92445cfa9882e916020908290030190a15b5050565b600054600190600160a060020a03163314156106225760055442101561079f5760405160e560020a62461bcd02815260040180806020018281038252602a815260200180611b54602a913960400191505060405180910390fd5b60095460a060020a900460ff166107ea5760405160e560020a62461bcd028152600401808060200182810382526023815260200180611ba36023913960400191505060405180910390fd5b6009805475ffffffffffffffffffffffffffffffffffffffffffff19169055604051600080516020611b0f83398151915290600090a15b50565b600c54600d54600e54600f54601054601154601254601354601454600160a060020a039091169060ff60a060020a820481169160a860020a90041690919293949596979899565b600054600190600160a060020a031633141561062257600d544210156108c55760405160e560020a62461bcd02815260040180806020018281038252602a815260200180611b54602a913960400191505060405180910390fd5b60145460a060020a900460ff166109105760405160e560020a62461bcd02815260040180806020018281038252602d8152602001806119e8602d913960400191505060405180910390fd5b601354604051600160a060020a0390911690303180156108fc02916000818181858888f1935050505015801561094a573d6000803e3d6000fd5b5060138054600160a060020a03191690556014805475ffff000000000000000000000000000000000000000019169055600b805460ff1916600117905542600c819055600d55604051600080516020611b0f83398151915290600090a1610821565b600a54600b5460ff169091565b6000610a16565b6040805160e560020a62461bcd02815260206004820152601e60248201527f5452414e53414354494f4e204e4f5420454e4f55474820455448455220210000604482015290519081900360640190fd5b50610821565b600054600160a060020a03163314610677576006548034106109c05760095460a060020a900460ff168015610a555750600954600160a060020a031633145b610a935760405160e560020a62461bcd028152600401808060200182810382526028815260200180611bf26028913960400191505060405180910390fd5b60045460055410610ad85760405160e560020a62461bcd0281526004018080602001828103825260228152602001806119976022913960400191505060405180910390fd5b600054600654610af191600160a060020a0316906117bf565b60075460058054909101905560095460408051600160a060020a039092168252517fcb07f57e2806563e485fc164eeceb48bd150ea1a389a41acd39d27d95752e0979181900360200190a150610821565b600454600554600654600754600854600954600160a060020a0381169060ff60a060020a820481169160a860020a9004169091929394959697565b600054600190600160a060020a0316331415610622576000610c79565b84841015610bdc5760405160e560020a62461bcd02815260040180806020018281038252603881526020018061195f6038913960400191505060405180910390fd5b848481610be557fe5b0615610c255760405160e560020a62461bcd02815260040180806020018281038252602c815260200180611bc6602c913960400191505060405180910390fd5b6006869055600785905560088490556009805475ff000000000000000000000000000000000000000000191660a860020a85151502179055604051600080516020611b0f83398151915290600090a1610d75565b60095460a060020a900460ff16158015610c9c5750600954600160a060020a0316155b15610d255760008611610ce35760405160e560020a62461bcd028152600401808060200182810382526026815260200180611a696026913960400191505060405180910390fd5b60008511610b9a5760405160e560020a62461bcd028152600401808060200182810382526024815260200180611aeb6024913960400191505060405180910390fd5b6040805160e560020a62461bcd02815260206004820152601f60248201527f54484520484f5553452049532043555252454e544c592052454e544544202100604482015290519081900360640190fd5b505050505050565b60095460a860020a900460ff168015610da0575060095460a060020a900460ff16155b15610eaa5760008054600160a060020a03163314610677576006548034106109c057600454421015610e065760405160e560020a62461bcd028152600401808060200182810382526025815260200180611b2f6025913960400191505060405180910390fd5b600054600654610e1f91600160a060020a0316906117bf565b60085442908101600455600754016005556009805474ff000000000000000000000000000000000000000019600160a060020a031990911633171660a060020a179081905560408051600160a060020a03929092168252517fd98e212306bf7d503620a9302294200aa29d41204aab082f71092c88a27e5cb99181900360200190a15b505b50610efa565b6040805160e560020a62461bcd02815260206004820152601c60248201527f594f552043414e4e4f542052454e54205448495320484f555345202100000000604482015290519081900360640190fd5b565b600054600160a060020a031690565b600054600190600160a060020a0316331415610622576014805475ff000000000000000000000000000000000000000000191660a860020a84151502179055604051600080516020611b0f83398151915290600090a1610741565b600054600190600160a060020a031633141561062257600a839055600b805460ff1916831515179055604051600080516020611b0f83398151915290600090a15b505050565b600b5460ff16156110395760008054600160a060020a0316331461067757600054600a54610fe391600160a060020a0316906117bf565b60008054600160a060020a03191633179081905560408051600160a060020a03929092168252517f0e240929895e4b92a221f9afc5a368e8c21bbb8d724511edd6e92445cfa9882e9181900360200190a1610ea4565b6040805160e560020a62461bcd02815260206004820152601b60248201527f594f552043414e4e4f5420425559205448495320484f55534520210000000000604482015290519081900360640190fd5b600054600190600160a060020a0316331415610622576003805460ff1916831515179055604051600080516020611b0f83398151915290600090a1610741565b600054600190600160a060020a0316331415610622576009805475ff000000000000000000000000000000000000000000191660a860020a84151502179055604051600080516020611b0f83398151915290600090a1610741565b600054600190600160a060020a03163314156106225760006112a6565b600086116111835760405160e560020a62461bcd028152600401808060200182810382526024815260200180611aeb6024913960400191505060405180910390fd5b858510156111c55760405160e560020a62461bcd02815260040180806020018281038252603881526020018061195f6038913960400191505060405180910390fd5b8585816111ce57fe5b061561120e5760405160e560020a62461bcd02815260040180806020018281038252602c815260200180611bc6602c913960400191505060405180910390fd5b6000606488600201600a54028161122157fe5b04600a54019050858782028161123357fe5b04600e55600f87905560108690556014805475ff000000000000000000000000000000000000000000191660a860020a8715150217600160a060020a031916600160a060020a03861617905560118890556012899055604051600080516020611b0f83398151915290600090a15061138d565b60145460a060020a900460ff161580156112c95750601354600160a060020a0316155b156113535760648811156113115760405160e560020a62461bcd02815260040180806020018281038252602b815260200180611c1a602b913960400191505060405180910390fd5b600087116111415760405160e560020a62461bcd028152600401808060200182810382526025815260200180611b7e6025913960400191505060405180910390fd5b60405160e560020a62461bcd028152600401808060200182810382526023815260200180611a156023913960400191505060405180910390fd5b5050505050505050565b600080546002805460035460018054604080516020601f6000198587161561010002019094169790970492830187900487028101870190915281815260609688968796600160a060020a0390921695919360ff909216929185918301828280156114425780601f1061141757610100808354040283529160200191611442565b820191906000526020600020905b81548152906001019060200180831161142557829003601f168201915b50505050509250935093509350935090919293565b600061154b565b61146c600e54601254611825565b600f54600d805490910190819055600c54116115465760008054604051600160a060020a0390911691303180156108fc02929091818181858888f193505050501580156114bd573d6000803e3d6000fd5b506013805460008054600160a060020a03808416600160a060020a0319928316179283905592169092556014805475ffff00000000000000000000000000000000000000001916905542600c819055600d5560408051929091168252517f0e240929895e4b92a221f9afc5a368e8c21bbb8d724511edd6e92445cfa9882e916020908290030190a15b610a10565b600054600160a060020a0316331461067757600e548034106109c05760145460a060020a900460ff16801561158a5750601354600160a060020a031633145b6115c85760405160e560020a62461bcd02815260040180806020018281038252602e815260200180611a8f602e913960400191505060405180910390fd5b600c54600d541061145e5760405160e560020a62461bcd028152600401808060200182810382526027815260200180611c456027913960400191505060405180910390fd5b60145460a860020a900460ff168015611630575060145460a060020a900460ff16155b156117855760008054600160a060020a0316331461067757600e548034106109c057600c544210156116965760405160e560020a62461bcd02815260040180806020018281038252602f8152602001806119b9602f913960400191505060405180910390fd5b601454600160a060020a031633146116e25760405160e560020a62461bcd028152600401808060200182810382526031815260200180611a386031913960400191505060405180910390fd5b6116f0600e54601254611825565b60105442908101600c55600f5401600d5560138054600160a060020a0319163317908190556014805474ffffffffffffffffffffffffffffffffffffffffff191660a060020a179055600b805460ff1916905560408051600160a060020a03929092168252517f7b580e289b0cd36ff5d70b1233d6b66036f903a7c7a881a4d1d33cd515e345059181900360200190a1610ea2565b60405160e560020a62461bcd02815260040180806020018281038252602e815260200180611abd602e913960400191505060405180910390fd5b604051600160a060020a0383169082156108fc029083906000818181858888f193505050501580156117f5573d6000803e3d6000fd5b5060405133903483900380156108fc02916000818181858888f19350505050158015610fa7573d6000803e3d6000fd5b6040516064828402049030906108fc8315029083906000818181858888f19350505050158015611859573d6000803e3d6000fd5b5060008054604051600160a060020a039091169183860380156108fc02929091818181858888f19350505050158015611896573d6000803e3d6000fd5b5060405133903485900380156108fc02916000818181858888f193505050501580156106c7573d6000803e3d6000fd5b828054600181600116156101000203166002900490600052602060002090601f016020900481019282601f1061190757805160ff1916838001178555611934565b82800160010185558215611934579182015b82811115611934578251825591602001919060010190611919565b50611940929150611944565b5090565b6106d091905b80821115611940576000815560010161194a56fe4455524154494f4e204d5553542042452047524541544552205448414e204f5220455155414c20544f205041594d454e542053544550202152454e54414c20434f4e5452414354205041594d454e54204f56455254494d45202154484520484f5553452049532043555252454e544c5920494e20494e5354414c4c4d454e542050524f43455353202154484520484f55534520484153204e4f54204245454e20494e5354414c4c4d454e54205041494420594554202154484520484f5553452049532043555252454e544c5920494e2050524f434553532021594f55522041444452455353204953204e4f5420414343455054454420544f2052454e54205448495320484f55534520215041594d454e5420434841524745204d555354204245204c4152474552205448414e20302021594f5520415245204e4f54204255594552204f5220484f555345204953204e4f5420494e2050524f434553532021594f552043414e4e4f542050415920425920494e5354414c4c4d454e5420464f52205448495320484f55534520215041594d454e542053544550204d555354204245204c4152474552205448414e20302021dee9a2c16424e5d6b520aa19f42dc5e0f0f92c320bd8dcaf408e4edb355dff8954484520484f5553452049532043555252454e544c59204245494e472052454e5445442021495420484153204e4f54204245454e205945542052454143484544205041594d454e5420444154452021494e5445524553542052415445204d555354204245204c4152474552205448414e2030202154484520484f55534520484153204e4f54204245454e2052454e5445442059455420214455524154494f4e204d55535420424520444956495349424c45204259205041594d454e5420535445502021594f5520415245204e4f542052454e544552204f5220484f555345204e4f542052454e544544202152455041592052415445204d55535420424520494e204245545745454e20302520414e4420313030252021494e5354414c4c4d454e5420434f4e5452414354205041594d454e54204f56455254494d452021a265627a7a723158203a53cdb1f88c99159ce40976e3c3d15937e0215a7a63f4b9ba3fcf99b2233b2e64736f6c63430005100032",
  "source": "pragma solidity ^0.5.0;\n\nimport \"./Authentication.sol\";\nimport \"./HouseProperty.sol\";\nimport \"./Installable.sol\";\nimport \"./Rentable.sol\";\n\ncontract House is HouseProperty, Rentable, Installable {\n\n    constructor(address payable _owner, string memory _location, uint _price, uint _area) public payable {\n        /* Default Part */\n        owner = _owner;\n        /* House Property Part */\n        location = _location;\n        area = _area;\n        active = true;\n        /* Buying Part */\n        price = _price;\n        buyable = true;\n        /* Renting Part */\n        rented = false;\n        rentable = true;\n        rentalDueDate = now;\n        rentalPaymentCharge = 1 ether;\n        rentalPaymentStep = 30 days;\n        rentalDuration = 90 days;\n        /* Installment Payment Part */\n        inProcess = false;\n        installable = true;\n        installmentDueDate = now;\n        installmentPaymentCharge = 1 ether;\n        installmentPaymentStep = 30 days;\n        installmentDuration = 90 days;\n        interestRate = 10;\n        repayRate = 10;\n    }\n\n    function getBalance() external view returns (uint256) {\n        return address(this).balance;\n    }\n\n    /* Fallback methods ! */\n    function() external payable {\n        /* Fallback function ! */\n    }\n\n}\n",
  "sourcePath": "D:\\Work\\Thesis_ThinhHuynh_2019\\Real-Estate-API\\contracts\\House.sol",
  "compiler": {
    "name": "solc",
    "version": "0.5.16+commit.9c3226ce.Emscripten.clang"
  },
  "schemaVersion": "3.0.23",
  "updatedAt": "2020-03-08T09:14:58.166Z",
  "devdoc": {
    "methods": {}
  },
  "userdoc": {
    "methods": {}
  }
}