{
  "abi": [
    {
      "constant": true,
      "inputs": [],
      "name": "MAX_UINT256",
      "outputs": [
        {
          "internalType": "uint256",
          "name": "",
          "type": "uint256"
        }
      ],
      "payable": false,
      "stateMutability": "view",
      "type": "function"
    }
  ],
  "evm": {
    "bytecode": {
      "linkReferences": {},
      "object": "6080604052348015600f57600080fd5b50609c8061001e6000396000f3fe6080604052348015600f57600080fd5b50600436106044577c0100000000000000000000000000000000000000000000000000000000600035046333a581d281146049575b600080fd5b604f6061565b60408051918252519081900360200190f35b6000198156fea265627a7a72315820b932da7b5bf65d52e38688b116817d5e64120b6c6bdfb73a1a85a9c996790f4b64736f6c634300050c0032",
      "opcodes": "PUSH1 0x80 PUSH1 0x40 MSTORE CALLVALUE DUP1 ISZERO PUSH1 0xF JUMPI PUSH1 0x0 DUP1 REVERT JUMPDEST POP PUSH1 0x9C DUP1 PUSH2 0x1E PUSH1 0x0 CODECOPY PUSH1 0x0 RETURN INVALID PUSH1 0x80 PUSH1 0x40 MSTORE CALLVALUE DUP1 ISZERO PUSH1 0xF JUMPI PUSH1 0x0 DUP1 REVERT JUMPDEST POP PUSH1 0x4 CALLDATASIZE LT PUSH1 0x44 JUMPI PUSH29 0x100000000000000000000000000000000000000000000000000000000 PUSH1 0x0 CALLDATALOAD DIV PUSH4 0x33A581D2 DUP2 EQ PUSH1 0x49 JUMPI JUMPDEST PUSH1 0x0 DUP1 REVERT JUMPDEST PUSH1 0x4F PUSH1 0x61 JUMP JUMPDEST PUSH1 0x40 DUP1 MLOAD SWAP2 DUP3 MSTORE MLOAD SWAP1 DUP2 SWAP1 SUB PUSH1 0x20 ADD SWAP1 RETURN JUMPDEST PUSH1 0x0 NOT DUP2 JUMP INVALID LOG2 PUSH6 0x627A7A723158 KECCAK256 0xb9 ORIGIN 0xda PUSH28 0x5BF65D52E38688B116817D5E64120B6C6BDFB73A1A85A9C996790F4B PUSH5 0x736F6C6343 STOP SDIV 0xc STOP ORIGIN "
    },
    "gasEstimates": {
      "creation": {
        "codeDepositCost": "31200",
        "executionCost": "81",
        "totalCost": "31281"
      },
      "external": {
        "MAX_UINT256()": "181"
      },
      "internal": {
        "safeAdd(uint256,uint256)": "infinite",
        "safeMul(uint256,uint256)": "infinite",
        "safeSub(uint256,uint256)": "infinite"
      }
    }
  }
}