{
  "contractName": "SafeMath",
  "abi": [
    {
      "constant": true,
      "inputs": [],
      "name": "MAX_UINT256",
      "outputs": [
        {
          "internalType": "uint256",
          "name": "",
          "type": "uint256"
        }
      ],
      "payable": false,
      "stateMutability": "view",
      "type": "function"
    }
  ],
  "bytecode": "0x6080604052348015600f57600080fd5b5060a28061001e6000396000f3fe6080604052348015600f57600080fd5b506004361060285760003560e01c806333a581d214602d575b600080fd5b60336049565b6040518082815260200191505060405180910390f35b7fffffffffffffffffffffffffffffffffffffffffffffffffffffffffffffffff8156fea265627a7a72315820ee1ca99bd4b2b5ed5863d4a9dc1b6adf2f5acbc81f5c37c89e7ad89523a956a164736f6c63430005100032",
  "source": "pragma solidity ^0.5.0;\n\ncontract SafeMath {\n    uint256 constant public MAX_UINT256 =\n    0xFFFFFFFFFFFFFFFFFFFFFFFFFFFFFFFFFFFFFFFFFFFFFFFFFFFFFFFFFFFFFFFF;\n\n    function safeAdd(uint256 x, uint256 y) pure internal returns (uint256 z) {\n        if (x > MAX_UINT256 - y) revert();\n        return x + y;\n    }\n\n    function safeSub(uint256 x, uint256 y) pure internal returns (uint256 z) {\n        if (x < y) revert();\n        return x - y;\n    }\n\n    function safeMul(uint256 x, uint256 y) pure internal returns (uint256 z) {\n        if (y == 0) return 0;\n        if (x > MAX_UINT256 / y) revert();\n        return x * y;\n    }\n}\n",
  "sourcePath": "D:\\Work\\Thesis_ThinhHuynh_2019\\Real-Estate-API\\contracts\\SafeMath.sol",
  "compiler": {
    "name": "solc",
    "version": "0.5.16+commit.9c3226ce.Emscripten.clang"
  },
  "schemaVersion": "3.0.23",
  "updatedAt": "2020-02-10T08:02:59.656Z",
  "devdoc": {
    "methods": {}
  },
  "userdoc": {
    "methods": {}
  }
}